:020000040003F7
:100000003DB8F3960000000000020000E06204002A
:100010000000000000000000AD7359B200000000B5
:10002000FFFFFFFFFFFFFFFFFFFFFFFFFFFFFFFFE0
:10003000FFFFFFFFFFFFFFFFFFFFFFFFFFFFFFFFD0
:10004000FFFFFFFFFFFFFFFFFFFFFFFFFFFFFFFFC0
:10005000FFFFFFFFFFFFFFFFFFFFFFFFFFFFFFFFB0
:10006000FFFFFFFFFFFFFFFFFFFFFFFFFFFFFFFFA0
:10007000FFFFFFFFFFFFFFFFFFFFFFFFFFFFFFFF90
:10008000FFFFFFFFFFFFFFFFFFFFFFFFFFFFFFFF80
:10009000FFFFFFFFFFFFFFFFFFFFFFFFFFFFFFFF70
:1000A000FFFFFFFFFFFFFFFFFFFFFFFFFFFFFFFF60
:1000B000FFFFFFFFFFFFFFFFFFFFFFFFFFFFFFFF50
:1000C000FFFFFFFFFFFFFFFFFFFFFFFFFFFFFFFF40
:1000D000FFFFFFFFFFFFFFFFFFFFFFFFFFFFFFFF30
:1000E000FFFFFFFFFFFFFFFFFFFFFFFFFFFFFFFF20
:1000F000FFFFFFFFFFFFFFFFFFFFFFFFFFFFFFFF10
:10010000FFFFFFFFFFFFFFFFFFFFFFFFFFFFFFFFFF
:10011000FFFFFFFFFFFFFFFFFFFFFFFFFFFFFFFFEF
:10012000FFFFFFFFFFFFFFFFFFFFFFFFFFFFFFFFDF
:10013000FFFFFFFFFFFFFFFFFFFFFFFFFFFFFFFFCF
:10014000FFFFFFFFFFFFFFFFFFFFFFFFFFFFFFFFBF
:10015000FFFFFFFFFFFFFFFFFFFFFFFFFFFFFFFFAF
:10016000FFFFFFFFFFFFFFFFFFFFFFFFFFFFFFFF9F
:10017000FFFFFFFFFFFFFFFFFFFFFFFFFFFFFFFF8F
:10018000FFFFFFFFFFFFFFFFFFFFFFFFFFFFFFFF7F
:10019000FFFFFFFFFFFFFFFFFFFFFFFFFFFFFFFF6F
:1001A000FFFFFFFFFFFFFFFFFFFFFFFFFFFFFFFF5F
:1001B000FFFFFFFFFFFFFFFFFFFFFFFFFFFFFFFF4F
:1001C000FFFFFFFFFFFFFFFFFFFFFFFFFFFFFFFF3F
:1001D000FFFFFFFFFFFFFFFFFFFFFFFFFFFFFFFF2F
:1001E000FFFFFFFFFFFFFFFFFFFFFFFFFFFFFFFF1F
:1001F000FFFFFFFFFFFFFFFFFFFFFFFFFFFFFFFF0F
:1002000040A10420195C040031C10500055C040014
:10021000055C0400055C0400055C0400055C04004A
:100220000000000000000000000000002D5E04003F
:10023000055C040000000000795D0400055C04001A
:10024000C9610400C9610400C9610400C9610400F6
:10025000C9610400C9610400C9610400C9610400E6
:10026000C9610400C9610400C9610400C9610400D6
:10027000C9610400C9610400C9610400C9610400C6
:10028000C9610400C9610400C9610400C9610400B6
:10029000C9610400C9610400C9610400C9610400A6
:1002A000C9610400C9610400C9610400C961040096
:1002B000C9610400C9610400C9610400C961040086
:1002C000C9610400C9610400C9610400C961040076
:1002D000C9610400C9610400C9610400C961040066
:1002E000C9610400C9610400C9610400C961040056
:1002F000C9610400C9610400C9610400C961040046
:10030000C9610400C9610400C9610400C961040035
:10031000C9610400C9610400C9610400C961040025
:10032000C9610400C9610400C9610400C961040015
:10033000C9610400C9610400C9610400C961040005
:10034000C9610400C9610400C9610400C9610400F5
:10035000C96104000000000000000000000000006F
:10036000000000000000000000000000000000008D
:10037000000000000000000000000000000000007D
:10038000000000000000000000000000000000006D
:10039000000000000000000000000000000000005D
:1003A000000000000000000000000000000000004D
:1003B000000000000000000000000000000000003D
:1003C000000000000000000000000000000000002D
:1003D000000000000000000000000000000000001D
:1003E000000000000000000000000000000000000D
:1003F00000000000000000000000000000000000FD
:10040000DEE61E284CBBCE8F023500003C0000000B
:10041000E06204000100000000020300000203008B
:10042000FFFF02910000000000000000000000003B
:10043000000000000000000000000000FFFFFFFFC0
:1004400081F0004102E000BF83F0004330B54FEA85
:1004500041044FEA430594EA050F08BF90EA020FF2
:100460001FBF54EA000C55EA020C7FEA645C7FEA85
:10047000655C00F0E2804FEA5454D4EB5555B8BFA8
:100480006D420CDD2C4480EA020281EA030382EA19
:10049000000083EA010180EA020281EA0303362DAB
:1004A00088BF30BD11F0004F4FEA01314FF4801C7E
:1004B0004CEA113102D0404261EB410113F0004F90
:1004C0004FEA03334CEA133302D0524263EB430347
:1004D00094EA050F00F0A780A4F10104D5F1200EE5
:1004E0000DDB02FA0EFC22FA05F2801841F1000140
:1004F00003FA0EF2801843FA05F359410EE0A5F114
:1005000020050EF1200E012A03FA0EFC28BF4CF044
:10051000020C43FA05F3C01851EBE37101F00045FA
:1005200007D54FF0000EDCF1000C7EEB00006EEB07
:100530000101B1F5801F1BD3B1F5001F0CD3490891
:100540005FEA30004FEA3C0C04F101044FEA4452E8
:1005500012F5800F80F09A80BCF1004F08BF5FEA6F
:10056000500C50F1000041EB045141EA050130BD4F
:100570005FEA4C0C404141EB0101013C28BFB1F561
:10058000801FE9D291F0000F04BF01460020B1FAAC
:1005900081F308BF2033A3F10B03B3F120020CDA7F
:1005A0000C3208DD02F1140CC2F10C0201FA0CF05D
:1005B00021FA02F10CE002F11402D8BFC2F1200CC2
:1005C00001FA02F120FA0CFCDCBF41EA0C01904078
:1005D000E41AA2BF01EB0451294330BD6FEA0404C1
:1005E0001F3C1CDA0C340EDC04F11404C4F12002AC
:1005F00020FA04F001FA02F340EA030021FA04F3BE
:1006000045EA030130BDC4F10C04C4F1200220FA14
:1006100002F001FA04F340EA0300294630BD21FA52
:1006200004F0294630BD94F0000F83F4801306BF18
:1006300081F480110134013D4EE77FEA645C18BF0C
:100640007FEA655C29D094EA050F08BF90EA020FA3
:1006500005D054EA000C04BF1946104630BD91EA9B
:10066000030F1EBF0021002030BD5FEA545C05D19E
:100670004000494128BF41F0004130BD14F58004DD
:100680003CBF01F5801130BD01F0004545F0FE4151
:1006900041F470014FF0000030BD7FEA645C1ABF86
:1006A000194610467FEA655C1CBF0B46024650EABD
:1006B000013406BF52EA033591EA030F41F40021E9
:1006C00030BD00BF90F0000F04BF0021704730B56F
:1006D0004FF4806404F132044FF000054FF0000144
:1006E00050E700BF90F0000F04BF0021704730B505
:1006F0004FF4806404F1320410F0004548BF4042DA
:100700004FF000013EE700BF42004FEAE2014FEA2E
:1007100031014FEA02701FBF12F07F4393F07F4F09
:1007200081F06051704732F07F4208BF704793F00C
:100730007F4F04BF41F40021704730B54FF460741F
:1007400001F0004521F000411CE700BF50EA010222
:1007500008BF704730B54FF000050AE050EA0102CB
:1007600008BF704730B511F0004502D5404261EB3B
:1007700041014FF4806404F132045FEA915C3FF47C
:10078000D8AE4FF003025FEADC0C18BF03325FEA19
:10079000DC0C18BF033202EBDC02C2F1200300FACA
:1007A00003FC20FA02F001FA03FE40EA0E0021FAEF
:1007B00002F11444BDE600BF70B54FF0FF0C4CF4DD
:1007C000E06C1CEA11541DBF1CEA135594EA0C0F8F
:1007D00095EA0C0F00F0DEF82C4481EA030621EACA
:1007E0004C5123EA4C5350EA013518BF52EA033505
:1007F00041F4801143F4801338D0A0FB02CE4FF0B7
:100800000005E1FB02E506F00042E0FB03E54FF0E6
:100810000006E1FB03569CF0000F18BF4EF0010EDE
:10082000A4F1FF04B6F5007F64F5407404D25FEADA
:100830004E0E6D4146EB060642EAC62141EA55518D
:100840004FEAC52040EA5E504FEACE2EB4F1FD0CCF
:1008500088BFBCF5E06F1ED8BEF1004F08BF5FEA4D
:10086000500E50F1000041EB045170BD06F00046FF
:1008700046EA010140EA020081EA0301B4EB5C04AC
:10088000C2BFD4EB0C0541EA045170BD41F48011A4
:100890004FF0000E013C00F3AB8014F1360FDEBFC9
:1008A000002001F0004170BDC4F10004203C35DAA5
:1008B0000C341BDC04F11404C4F1200500FA05F328
:1008C00020FA04F001FA05F240EA020001F00042C9
:1008D00021F0004110EBD37021FA04F642EB06013F
:1008E0005EEA430E08BF20EAD37070BDC4F10C0469
:1008F000C4F1200500FA04F320FA05F001FA04F22D
:1009000040EA020001F0004110EBD37041F1000118
:100910005EEA430E08BF20EAD37070BDC4F1200523
:1009200000FA05F24EEA020E20FA04F301FA05F28B
:1009300043EA020321FA04F001F0004121FA04F233
:1009400020EA020000EBD3705EEA430E08BF20EA03
:10095000D37070BD94F0000F0FD101F0004640003D
:1009600041EB010111F4801F08BF013CF7D041EABF
:10097000060195F0000F18BF704703F000465200C3
:1009800043EB030313F4801F08BF013DF7D043EA94
:100990000603704794EA0C0F0CEA135518BF95EA4A
:1009A0000C0F0CD050EA410618BF52EA4306D1D1D1
:1009B00081EA030101F000414FF0000070BD50EAF0
:1009C000410606BF1046194652EA430619D094EA7A
:1009D0000C0F02D150EA013613D195EA0C0F05D164
:1009E00052EA03361CBF104619460AD181EA0301B8
:1009F00001F0004141F0FE4141F470014FF0000070
:100A000070BD41F0FE4141F4780170BD70B54FF00A
:100A1000FF0C4CF4E06C1CEA11541DBF1CEA13558A
:100A200094EA0C0F95EA0C0F00F0A7F8A4EB05046C
:100A300081EA030E52EA03354FEA013100F0888063
:100A40004FEA03334FF0805545EA131343EA12632C
:100A50004FEA022245EA111545EA10654FEA0026E1
:100A60000EF000419D4208BF964244F1FD0404F59A
:100A7000407402D25B084FEA3202B61A65EB0305F6
:100A80005B084FEA32024FF480104FF4002CB6EBB3
:100A9000020E75EB030E22BFB61A754640EA0C0033
:100AA0005B084FEA3202B6EB020E75EB030E22BF73
:100AB000B61A754640EA5C005B084FEA3202B6EBB4
:100AC000020E75EB030E22BFB61A754640EA9C0073
:100AD0005B084FEA3202B6EB020E75EB030E22BF43
:100AE000B61A754640EADC0055EA060E18D04FEA01
:100AF000051545EA16754FEA06164FEAC30343EAA1
:100B000052734FEAC2025FEA1C1CC0D111F4801F6D
:100B10000BD141EA00014FF000004FF0004CB6E766
:100B200011F4801F04BF01430020B4F1FD0C88BF05
:100B3000BCF5E06F3FF6AFAEB5EB030C04BFB6EB10
:100B4000020C5FEA500C50F1000041EB045170BD03
:100B50000EF0004E4EEA113114EB5C04C2BFD4EB30
:100B60000C0541EA045170BD41F480114FF0000EB4
:100B7000013C90E645EA060E8DE60CEA135594EA30
:100B80000C0F08BF95EA0C0F3FF43BAF94EA0C0F33
:100B90000AD150EA01347FF434AF95EA0C0F7FF4A8
:100BA00025AF104619462CE795EA0C0F06D152EAFC
:100BB00003353FF4FDAE1046194622E750EA4106E0
:100BC00018BF52EA43067FF4C5AE50EA41047FF4F1
:100BD0000DAF52EA43057FF4EBAE12E74FF0FF3C56
:100BE00006E000BF4FF0010C02E000BF4FF0010C27
:100BF0004DF804CD4FEA410C7FEA6C5C4FEA430CA0
:100C000018BF7FEA6C5C1BD001B050EA410C0CBFEE
:100C100052EA430C91EA030F02BF90EA020F002050
:100C2000704710F1000F91EA030F58BF994208BFB7
:100C300090422CBFD8176FEAE37040F00100704774
:100C40004FEA410C7FEA6C5C02D150EA013C07D1CB
:100C50004FEA430C7FEA6C5CD6D152EA033CD3D016
:100C60005DF8040B704700BF8446104662468C4610
:100C70001946634600E000BF01B5FFF7B7FF002843
:100C800048BF10F1000F01BD4DF808EDFFF7F4FF6C
:100C90000CBF012000205DF808FB00BF4DF808EDF7
:100CA000FFF7EAFF34BF012000205DF808FB00BF1A
:100CB0004DF808EDFFF7E0FF94BF012000205DF83C
:100CC00008FB00BF4DF808EDFFF7CEFF94BF0120F1
:100CD00000205DF808FB00BF4DF808EDFFF7C4FFEA
:100CE00034BF012000205DF808FB00BF4FEA410C33
:100CF0007FEA6C5C02D150EA013C0AD14FEA430C16
:100D00007FEA6C5C02D152EA033C02D14FF0000052
:100D100070474FF0010070474FEA410212F5001290
:100D200015D211D56FF47873B3EB625212D94FEA32
:100D3000C12343F0004343EA505311F0004F23FA1C
:100D400002F018BF404270474FF00000704750EA71
:100D5000013005D111F0004008BF6FF0004070472E
:100D60004FF00000704700BF4A0011D212F5001288
:100D700011D20DD56FF47873B3EB62520ED44FEAF3
:100D8000C12343F0004343EA505323FA02F0704773
:100D90004FF00000704750EA013002D14FF0FF30B1
:100DA00070474FF0000070474FEA4102B2F1E04354
:100DB00024BFB3F5001CDCF1FE5C0DD901F0004C42
:100DC0004FEAC0024CEA5070B2F1004F40EB830092
:100DD00008BF20F00100704711F0804F21D113F1BE
:100DE0003872BCBF01F00040704741F480114FEAF7
:100DF0005252C2F11802C2F1200C10FA0CF320FA80
:100E000002F018BF40F001004FEAC1234FEAD3239C
:100E100003FA0CFC40EA0C0023FA02F34FEA430306
:100E2000CCE77FEA625307D150EA01331EBF4FF08F
:100E3000FE4040F44000704701F0004040F0FE40AA
:100E400040F40000704700BF80F0004002E000BFA7
:100E500081F0004142001FBF5FEA410392EA030FA5
:100E60007FEA226C7FEA236C6AD04FEA1262D2EBEF
:100E70001363C1BFD218414048404140B8BF5B42F4
:100E8000192B88BF704710F0004F40F4000020F08D
:100E90007F4018BF404211F0004F41F4000121F0A3
:100EA0007F4118BF494292EA030F3FD0A2F10102ED
:100EB00041FA03FC10EB0C00C3F1200301FA03F12B
:100EC00000F0004302D5494260EB4000B0F5000F4E
:100ED00013D3B0F1807F06D340084FEA310102F10D
:100EE0000102FE2A51D2B1F1004F40EBC25008BFBF
:100EF00020F0010040EA03007047490040EB000089
:100F0000013A28BFB0F5000FEDD2B0FA80FCACF189
:100F1000080CB2EB0C0200FA0CF0AABF00EBC250B6
:100F200052421843BCBFD0401843704792F0000FA4
:100F300081F4000106BF80F400000132013BB5E7F7
:100F40004FEA41037FEA226C18BF7FEA236C21D06D
:100F500092EA030F04D092F0000F08BF08467047D2
:100F600090EA010F1CBF0020704712F07F4F04D1A0
:100F7000400028BF40F00040704712F100723CBFB3
:100F800000F50000704700F0004343F0FE4040F4DD
:100F9000000070477FEA226216BF08467FEA23639B
:100FA0000146420206BF5FEA412390EA010F40F486
:100FB000800070474FF0000304E000BF10F00043D2
:100FC00048BF40425FEA000C08BF704743F09643B9
:100FD00001464FF000001CE050EA010208BF7047D4
:100FE0004FF000030AE000BF50EA010208BF70475B
:100FF00011F0004302D5404261EB41015FEA010C70
:1010000002BF84460146002043F0B64308BFA3F167
:101010008053A3F50003BCFA8CF2083AA3EBC25349
:1010200010DB01FA02FC634400FA02FCC2F1200268
:10103000BCF1004F20FA02F243EB020008BF20F09F
:101040000100704702F1200201FA02FCC2F1200205
:1010500050EA4C0021FA02F243EB020008BF20EAFA
:10106000DC7070477BB972B90029BEBF00204FF019
:10107000004106E008BF00281CBF6FF000414FF0A0
:10108000FF3000F057B8ADF1080C6DE904CE00292F
:1010900009DB002B1ADB00F057FEDDF804E0DDE988
:1010A000022304B07047404261EB4101002B1BDB7F
:1010B00000F04AFEDDF804E0DDE9022304B040421E
:1010C00061EB4101524263EB43037047524263EBD1
:1010D000430300F039FEDDF804E0DDE9022304B04B
:1010E000404261EB41017047524263EB430300F021
:1010F0002BFEDDF804E0DDE9022304B0524263EB8D
:101100004303704753B94AB9002908BF00281CBFE0
:101110004FF0FF314FF0FF3000F00CB8ADF1080C8C
:101120006DE904CE00F010FEDDF804E0DDE90223F5
:1011300004B07047704700BF70B52DED048BF0EE22
:10114000408A92ED000AB4EEE80AD2ED019AD2ED9F
:10115000C87AF1EE10FA1646B0EE609A05460C46D3
:1011600079EEC09AF4EEE78AC0F29780F1EE10FAB9
:10117000B4EEE80A72DBF1EE10FA67D40023D5ED85
:10118000C85A94EDC86A94EDC75AD5EDC76AB0EE57
:10119000657AE5EE096AA6EE097A78EEE77A37EE27
:1011A000667A67EE277A87EEA98A38EE258AA6EE58
:1011B000098AFBB338EEC00A80EE290A2FF0F4F852
:1011C000F0EE007A96ED007AB7EE006A78EEC75A34
:1011D00030EE277A70EE066ABDEEC77A17EE103A47
:1011E000BDEEE67A6FF0404117EE102AC5EEA97AFF
:1011F0000B440A4405EB830104EB830377EEC07ACA
:1012000093ED007A91ED005A27EE877A05EB82057F
:1012100004EB820436EE676A27EE858AD5ED006A14
:10122000D4ED005AF0EE477AA6EE868AE5EE867A8D
:10123000A9EE278AB0EE680A00F0AAFC9FED240A06
:10124000002808FE000ABDEC048B70BDF4EEE78AAE
:10125000F1EE10FA4CBF0123002390E7F1EE10FAF3
:101260002DD4002395ED006AD4ED006A95ED017A46
:1012700094ED015AF0EE465AA5EE097AE6EE895A47
:1012800078EEC07A37EE657A67EE877A87EEA98ABC
:1012900038EE068AA6EE898A8BE7F1EE10FAB4EEF4
:1012A000E80ABFF668AFF1EE10FA05D5F4EEE78A6A
:1012B000F1EE10FA3FF57EAF9FED058ABAE7F4EE46
:1012C000E78AF1EE10FA4CBF01230023CAE700BF02
:1012D000000000002DE9F0412DED048B01F6B478FB
:1012E000F0EE408A98ED000AB4EEE80A1F4601F6D7
:1012F000B873D3ED009A01F58053D3ED447AF1EE43
:1013000010FA0D46B0EE419A0646144679EEC09AA0
:10131000F4EEE78AC0F2BD80F1EE10FAB4EEE80A0E
:10132000C0F29880F1EE10FA00F18C800022D3ED2B
:101330009C5A93EDF46A93EDF35AD3ED9B6AB0EEA9
:10134000657AE5EE096AA6EE097A78EEE77A37EE75
:10135000667A67EE277A87EEA98A38EE258AA6EEA6
:10136000098ACAB338EEC00A80EE290A2FF01CF8A9
:1013700098ED007AF0EE007AF7EE006A78EEC75A40
:1013800030EE276A30EE267AC5EEA97ABDEEC77A2E
:1013900037EEC00AFDEEC67A17EE102A17EE903A25
:1013A00005EB820205EB830505F5805595ED448A32
:1013B00095ED9C6A02F5805276EEC06A20EE088AAE
:1013C00092ED447AD2ED9C7A20EE060AA7EE268AA8
:1013D000A7EEA60AA9EE008AB0EE680A00F0D8FBD4
:1013E000DFED397A4FF0804200284FF07E5308FE3F
:1013F000278AC4ED018AC4ED037A84ED048AA260D1
:10140000002223603168314B616171681B68A16102
:10141000B1682F48E161F1682162316961627169E7
:101420006063E3622363A162F368C4ED0F7AC4EDE5
:10143000107A84F84420A363C7ED008ABDEC048BC6
:10144000BDE8F081F4EEE78AF1EE10FA4CBF01221C
:1014500000226CE7F1EE10FA2DD4002293ED456ADC
:10146000D3ED9D6A93ED467A93ED9E5AF0EE465A7F
:10147000A5EE097AE6EE895A78EEC07A37EE657AFB
:1014800067EE877A87EEA98A38EE068AA6EE898A01
:1014900067E7F1EE10FAB4EEE80ABFF643AFF1EEFB
:1014A00010FA05D5F4EEE78AF1EE10FA3FF55AAFDF
:1014B0009FED058A90E7F4EEE78AF1EE10FA4CBF53
:1014C00001220022CAE700BF0000000098080020A7
:1014D000000020412DE9F04F2DED088BD0ED027A70
:1014E000FDEEE77A17EE906A01F5C96900EB860810
:1014F000F0EE409A98ED02BA99ED000AB4EECB0AEC
:101500001F4601F24C63D3ED00AAF1EE10FA8DB044
:1015100001F6681B04460D46B0EE609AB0EE41AA93
:10152000B0EE618A9BED007A7AEEC0AA019206F1D4
:10153000FF36C0F29A82B4EEC7BAF1EE10FAB4EEFA
:10154000CB0AC0F2AA82F1EE10FA00F10683002362
:1015500005F5805A0AF6182191ED006A0AF2F46145
:10156000D1ED005A0AF6142191ED005A0AF5DE6118
:10157000D1ED006AF0EE657AE5EE0A6AE6EE0A7AE7
:101580003BEE477A77EEE67A67EE877AC7EEAA8A6D
:1015900078EEA58AE6EE0A8AFBB33BEE400A80EEBF
:1015A0002A0A2EF001FFF0EE007A70EE277A98ED0D
:1015B000027AD9ED006AB7EE006AFDEEE77A77EEBF
:1015C000665A30EE067A17EE903AC5EEAA6ABDEE7C
:1015D000C77A05EB830303F58053D3EDF48A03F256
:1015E000F46336EEC00AD3ED006A17EE103A05EB4D
:1015F000830303F5805393EDF47A03F2F46336EE3C
:10160000406A60EE288AD3ED007A20EE260AE7EEE3
:10161000068AA7EE860AEAEE008AB0EE4B0A00F0D0
:10162000B7FAD4ED026AFDEEE66A16EE903A0AF6D3
:101630001C2292ED007A0022012103EB460A0AF1F6
:10164000300303920DEB030202F8251C9DF90E30C6
:10165000DFEDEF5A04EE903A9DF90F309FEDF06AFE
:1016600005EE103A9DF90C3027EE257A05EE903AFA
:101670009DF90D30B1EE488A00288DED046A8DED9C
:10168000056AD4ED047AF8EEE44AB8EEC55A48FE8D
:10169000868A06EE103AC8EE076AD4ED031A24EEE5
:1016A000A77AF8EEE55AB8EEC66A67EE857A0CAB13
:1016B00003EB860242ED086A94ED0F2A9DED04BA11
:1016C0009DED058AA5EEA17AE1EE867AABEE027A6F
:1016D000E2EE087AD4ED052A94ED063AD4ED073A05
:1016E00094ED084A8DED067ACDED077AB6000DF13E
:1016F000180C04F10C0003A908AA04F1140E11F946
:10170000013B06EE903A91F90130F8EEE66A07EEF9
:10171000903AF8EEE77A27EE847A67EE837AA6EEBF
:10172000A37AE6EEA27A64EE876A25EE077AE5EE02
:10173000A76AA6EE277AE2EC016A5CF8043B82ED28
:10174000017A40F8043B8645D9D1D8ED020A9FEDD5
:10175000B10A2EF02DFEF0EE400A9FEDAF0A2EF0FA
:1017600052FE88ED020AD4ED0A7ADDED085A2BEE1E
:10177000275A9DED096A68EE277ADDED0A6A9DED2C
:101780000B7AABEE276AA8EE277AEBEE055AE8EE65
:10179000056A84ED066AC4ED076A84ED087AC4ED33
:1017A000055A04EB8A0AD4ED0E4ADAED047A77EE94
:1017B000E47AC7ED077A4A46F0EE4A0A284698EDE1
:1017C000020A05F54971FFF7B7FC94ED096A87ED48
:1017D000030A98ED027AD9ED007AB4EEE77A002296
:1017E000A9EE680AF1EE10FADBED006A30EE46BAB7
:1017F0000492059240F37681B4EEE67AF1EE10FAA7
:1018000040F17081B4EE677AF1EE10FA00F0A38136
:10181000B4EE667AF1EE10FA23D1012205F57B6170
:1018200091ED005A05F68C41D1ED004A05F6AC71F8
:1018300091ED004A05F68841D1ED005AB0EE646A98
:10184000E4EE0A5AA5EE0A6A77EE666A36EE656A33
:1018500066EE266A86EEAA8A38EE248AA5EE0A8A01
:10186000FAB337EE670A80EE2A0A2EF09DFDF0EEFD
:10187000007AB7EE006A70EE277AD9ED006A98ED2B
:10188000027A70EE065AFDEEE77A37EE665A17EEE8
:10189000903AFDEEE55AC5EE2A6A05EB830215EE95
:1018A000903A02F6681102F68C4236EEC00AD2ED8A
:1018B000005A91ED008A05EB830505F6681205F6DE
:1018C0008C4536EE406A20EE088AD2ED006AD5EDEE
:1018D000007A20EE250AA6EE868AA7EE860AAAEEF0
:1018E000008AB0EE470A00F053F9DFED4D6A06F1C9
:1018F0003003002808FE268A0DEB030606ED088A51
:10190000DDED046A94ED077A9DED058A66EE874A5F
:1019100094ED084AD4ED067AD4ED053AE8EE044A8F
:1019200028EE275A66EEA77AA6EEA35AE8EE047AC6
:1019300028EE077A28EE248A94ED093AA6EE858AE5
:10194000D4ED035A38EE038A94ED046AA6EEA37A26
:10195000C7EE88AAC7EE08BAF0EE467AB0EE657A0E
:1019600039EECBAAAAEE2B7AEAEE2A7A84ED037A34
:10197000C4ED047A9FED270AD8ED020A2EF018FD77
:10198000F0EE400A9FED240A2EF03DFDDFED237AB4
:1019900088ED020A6BEEC84AD4ED055A94ED066A4A
:1019A000D4ED076A94ED087A2AEEC85A68EE277AD1
:1019B0002AEE0AAAAAEE857AB4EEE7AAEBEEA45ABA
:1019C000ABEE856AEAEEA46A84ED087AC4ED055AA6
:1019D00084ED066AC4ED076AF1EE10FADAED047AD6
:1019E000C4BF94ED0D7A67EE877A019BC8BFCAED3C
:1019F000047AC4ED019A84ED0F9AC4ED0E7A84ED59
:101A00000B0A83ED000A94F84420D2B10AE000BF2B
:101A1000000061450AD723BCAE47813F0000444225
:101A20000000000094ED0C7AD8ED027A77EEC77AC8
:101A3000F5EEC07AF1EE10FAC4BF83ED007AB0EE95
:101A4000470A84ED0C0A87ED00BAC7ED018AC7ED9D
:101A500002AA87ED049ADAF8103087ED068A7B61D6
:101A60000DB0BDEC088BBDE8F08F0BD5B4EEC7BA56
:101A7000F1EE10FA06D5B4EE47BAF1EE10FA7CD1C9
:101A8000012365E5B4EEC7BAF1EE10FABFF65FAD1B
:101A90005FED1D8A05F5805ABFE5F1EE10FA64D4BA
:101AA000002305F5805A9AEDF56A0AF5DF61D1ED5C
:101AB000006A0AF2FC619AEDF67A91ED005AF0EEB6
:101AC000465AA5EE0A7AE6EE8A5A7BEE407A37EE5F
:101AD000657A67EE877AC7EEAA8A78EE868AE6EE9E
:101AE0008A8A59E5B4EEE77AF1EE10FA06D9B4EE37
:101AF000E67AF1EE10FA2BDB00228FE60022B4EE3C
:101B0000E67AF1EE10FABFF689AE05F54961D1ED3E
:101B1000005A05F5176191ED006A05F69441D1ED83
:101B2000004A05F66C1191ED005AA4EE8A6AF0EEB7
:101B3000454AE5EE8A4A77EE676A36EE646A66EEF3
:101B4000866A86EEAA8A38EE058AA5EE8A8A87E634
:101B50001FED4D8AC5E60122D1E7B4EEC7BAF1EE1A
:101B600010FA4CBF01230023F2E4B4EEC7BAF1EE41
:101B700010FA4CBF0123002393E701F5805A0CE5CE
:101B80000B6843624B6883620B7A80F8443070477D
:101B900008B510EE100AFEF7B7FD02460B46FFF738
:101BA000A5F8003818BF012008BD00BF014B93ED18
:101BB000000A704798080020014B93ED000A704717
:101BC00098080020054B036043608360C360036195
:101BD00043618361C3610362704700BF0000C07F3F
:101BE00060B370B5C368044688B023B30E4648227C
:101BF000002114482EF059FC134D144B94ED021A99
:101C0000D4ED010A94ED000AE4680DF1080C1C60A3
:101C10000FCDACE80F0095E803000A4A8CE80300FA
:101C200001AB214602A8FFF755FB0EB1019B3360C3
:101C3000002008B070BD6FF01500FAE76FF01500D6
:101C4000704700BFF88C012070860600F48C0120DC
:101C5000F4EE600AF1EE10FA10B52DED048B6CBFB6
:101C60009FED1C8AB0EE608AF0EE408AB0EE419A99
:101C7000F0EE619A1849194A194B09788CB012682C
:101C80001B688DF80C10044601A9164801920293B6
:101C9000FFF776FF144BB0EE680A1968F0EE691A88
:101CA000B0EE491AF0EE480A6A460E4804ABFFF758
:101CB00011FCDFED0E7A9DED000A20EE270A2CB113
:101CC0000B4B0499059A21606260A3600CB0BDECD7
:101CD000048B10BD00000000C3250420A8080020CC
:101CE000A4080020F88C0120F48C01200000C842D8
:101CF0000000C07F0148FFF759BF00BFF88C0120EA
:101D0000024B01461A680248FFF756BFF48C0120C7
:101D1000F88C012078B100B50749D0F800C04268BE
:101D200090F810E0054B0648C1F800C080F800E0CC
:101D30001A605DF804FB7047A8080020A408002082
:101D4000C3250420704700BF2DE9F04786468C4626
:101D50000846089E154674461946002B40F0C1807F
:101D60008542B2FA82F245D94AB1C2F1200300FAA3
:101D700002FC954094402EFA03F343EA0C0C4FEA20
:101D8000154EA8B2230CBCFBFEF80EFB18CC08FBCA
:101D900000F943EA0C43994528D9EB1808F1FF37BD
:101DA00004D2994502D9A8F102072B44A3EB0903F9
:101DB000A4B2B3FBFEFC0EFB1C330CFB00F044EAA8
:101DC0000344A04214D92C190CF1FF3304D2A042D1
:101DD00002D9ACF102032C44241A43EA07401EB195
:101DE000D440002334607360BDE8F0874746DDE7E8
:101DF0006346F1E792BB431B01214FEA154EAFB298
:101E0000200CB3FBFEFC0EFB1C330CFB07F840EA76
:101E10000343984561D9EB180CF1FF3004D2984583
:101E200002D9ACF102002B44A3EB0803A4B2B3FB2C
:101E3000FEFC0EFB1C330CFB07F744EA0344A742ED
:101E40004DD92C190CF1FF3304D2A74202D9ACF1C1
:101E500002032C44E41B43EA0040C0E7C2F1200324
:101E60009540944020FA03F12EFA03F34FEA154E01
:101E70009040AFB20343B1FBFEFC0EFB1C10190CEB
:101E80000CFB07F841EA0041884522D969180CF19A
:101E9000FF3004D2884502D9ACF102002944A1EBFD
:101EA00008019BB2B1FBFEFC0EFB1C110CFB07F7FB
:101EB00043EA01439F420ED9EB180CF1FF3104D2E3
:101EC0009F4202D9ACF102012B44DB1B41EA0041E5
:101ED00093E76046E3E76146F7E76046A4E76346B9
:101EE000B8E7834206D916B9002108467CE7C6E95F
:101EF00000E0F9E7B3FA83F78FB9834201D3724563
:101F000008D8BEEB020460EB030301209C461EB917
:101F1000002169E73846FAE7C6E9004CF8E7C7F15F
:101F2000200CBB400EFA07F522FA0CF42EFA0CF145
:101F3000BA401C4320FA0CF3B8404FEA144901435D
:101F40001FFA84FEB3FBF9F809FB18300B0C08FBF1
:101F50000EFA43EA00439A4540D9E31808F1FF30EE
:101F600004D29A4502D9A8F102002344A3EB0A0344
:101F700089B2B3FBF9F809FB183308FB0EFE41EAFE
:101F800003418E452CD9611808F1FF3304D28E45E8
:101F900002D9A8F10203214443EA0040A1EB0E015B
:101FA000A0FB02984145CE46434602D306D14D459B
:101FB00004D20138B9EB020E68EB0403002EA7D05F
:101FC000B5EB0E0261EB030101FA0CFC22FA07F3F8
:101FD000F9404CEA0303C6E9003199E74046C5E7FA
:101FE0004346D9E710F8012B11F8013B012A28BF1D
:101FF0009A42F7D0D01A7047034611F8012B03F824
:10200000012B002AF9D17047034613F8012B002A4F
:10201000FBD1181A013870472DE9F84355EC104BE5
:102020000646002220462946214BFEF737FE90BB8C
:102030001BA3D3E9002320462946FEF74DFE50BBE3
:1020400029462046FEF768FE0746FEF74BFB024690
:102050000B4620462946FEF7F7F913A3D3E90023E0
:10206000FEF7AAFB0022124B80468946FEF716FEB9
:1020700088B90BA3D3E9002340464946FEF72CFE5E
:10208000044640B9404649463760FEF745FE706059
:102090002046BDE8F8836FF02100FAE7AFF3008037
:1020A0000000C0FFFFFFDF410000000080842E41E0
:1020B0000000E0C1000000002DE9F84355EC104B92
:1020C0000646002220462946214BFEF7E7FD90BB3D
:1020D0001BA3D3E9002320462946FEF7FDFD50BB94
:1020E00029462046FEF718FE0746FEF7FBFA024691
:1020F0000B4620462946FEF7A7F913A3D3E9002390
:10210000FEF75AFB0022124B80468946FEF7C6FDB9
:1021100088B90BA3D3E9002340464946FEF7DCFD0E
:10212000044640B9404649463760FEF7F5FD706009
:102130002046BDE8F8836FF02100FAE7AFF3008096
:102140000000C0FFFFFFDF410000000080842E413F
:102150000000E0C100000000F7B5002841D12E4C7E
:102160003A21A3682046DB689847024648B12B48CD
:102170000368590702D02A4926F070FE0024294D31
:102180002BE06A462021204626F060FE024628B158
:10219000224803685B07F1D02349EDE70198FEF779
:1021A000A1FA1BA3D3E90023FEF730FC04460098F4
:1021B0000D46FEF797FA02460B4620462946FEF7E3
:1021C00045F91A4B0446D3E900670D4632463B46B3
:1021D00030463946FEF78AFD78B145EC104B03B026
:1021E000F0BD1349134840F20313134A27F0DBFEF6
:1021F00040F20311104827F0CFFE20462946324610
:102200003B46FEF7D9FA04460D46E6E7AFF30080F9
:102210000000000080842E41580A06001C0A00209D
:1022200078A306000000F87F8FA306006814002042
:1022300057C60600D68C06007AA2060000000000F1
:102240002DE9F04F2DED028B00230A22DDB006AF01
:10225000BB8687F83520552287F83630C7E90E232C
:102260009F482DF079FB80B99E48036803F007036F
:10227000022B03D99C4A032126F0EBFD07F5AE772C
:10228000BD46BDEC028BBDE8F08F98482DF064FB95
:1022900038B99448036803F00703022BEED9944A37
:1022A000E9E7944C20462DF057FB38B98D48036878
:1022B00003F00703022BE1D98F4ADCE7D4F804804E
:1022C000A668D8F800302569DA010ED48B4940F2AF
:1022D000E9338B4A8B4827F066FE8B4827F063FE74
:1022E00040F2E931864827F057FE2B68182143F069
:1022F00080732B6020463368844A98470028D5D1E4
:102300008349844B4B604FF080738B60F369002BE3
:10231000CCD00122204698470028C7D1B669002EAC
:10232000C4D0D8F80030DB010CD4744940F28733B4
:10233000734A744827F037FE734827F034FE40F2A2
:102340008731CFE72B684FF0A07213F0807F14BF66
:102350004FF000734FF0806318212046B0470028EB
:10236000A4D16D4C20462DF0F7FA38B95D480368CA
:1023700003F00703022B81D9684A7CE7A3681D6834
:102380003DB9584803685D073FF478AF0121644ABE
:1023900072E702220C21204607F13803A8470028E3
:1023A000EFD14F4807F1340183681B689847054611
:1023B00048B14C4803685C073FF460AF2A4659496E
:1023C00026F04CFD5AE70821222007F1580209F0B7
:1023D00041F9002855D04348036813F0060F03D095
:1023E0000221514A26F035FD08212A2007F1580222
:1023F00009F030F900284AD03A48036813F0060F74
:1024000003D00221494A26F024FD0021344826F059
:102410002AFD024630B133480368590702D04449C7
:1024200026F01CFD4348012126F042FD102012F049
:1024300083FB08B1404B43600024404B047383602E
:1024400012F064FC9FED247B87ED0A7BB0EE478A97
:10245000F0EE678A87ED087B5BEC17AB4FF0FF323D
:102460004FF0FF33364807F1480121F021FB0246C7
:1024700098B11C4803685B07F0D0324926F0EEFCA7
:10248000ECE7314BD7E91601C3E90001ACE72E4B6D
:10249000D7E91601C3E90201B7E797F84830062BE0
:1024A00000F29A82DFE813F00700F601A80083012A
:1024B00083028D029302254826F0CDFC07F14803E4
:1024C00000284ED09A68002A42D10FCB04F0F4F8CD
:1024D000C4E700BFAFF30080000000000000F87FF9
:1024E000A40906001C0A0020BBA30600580A060027
:1024F000D0A30600A008060069A4060019A40600DF
:10250000E8A30600D68C060057A4060011000100BF
:1025100080FF002051640300440A06008FA40600D7
:10252000A8A40600C4A40600D9A40600FFA40600BF
:1025300023A506007CFF00208C620700B86407001A
:10254000CC0E0020D99C06006814002058FF002003
:10255000AD4803685E0781D0AC4A012126F079FCC2
:102560007CE7AB4A9D68D2E9028942464B46404629
:102570004946FEF7BBFB07F13302B0B949EC108BBB
:102580002946A44804F01AF8024688B19E48036818
:10259000590702D0A04926F061FC3B6D1BBB00250A
:1025A0004FF0000ADFF8B8B258E79FED8F0BE7E76E
:1025B0009A4C396D9A4826F07BFC238813B13A6D0A
:1025C0009A4201DD0024E8E7964A12889A42F9D03F
:1025D0000C2012F0B1FA08B1934B436023880381B9
:1025E00012F094FBEEE797F83330002BD7D18F4BE6
:1025F000187804F067F9D2E78C4E3078FFF7ACFD1D
:10260000337887ED080B002B53D107F140021E21D0
:10261000874826F01BFC024600B37B4803685B0733
:1026200002D0844926F01AFC9FED718B824E3A212C
:10263000B3683046DB6898470246002844D107F16A
:1026400040020C21304626F001FC0246002864D0EE
:102650006D48036859073ED076493AE0786CFEF73A
:1026600041F865A3D3E90023FEF7D0F98046386C22
:102670008946FEF737F802460B4640464946FDF7C5
:10268000E5FE3B6A8046BB607B6A894623F00043D7
:10269000FB60D7E902015AA3D3E90023FEF78CF8C7
:1026A00002460B4640464946FDF7D0FE41EC180B6A
:1026B000BCE7624940F22713614A624827F073FC85
:1026C00040F227115E480EE64F4803685E0702D0CD
:1026D0005D4926F0C3FB9FED467B87ED0A7B3020EA
:1026E00012F02AFA064618B1584B43602023C36003
:1026F000574B97ED080BB36006F1100006F118096F
:10270000FFF7DAFCF8B153494FF40D734C4A4D48CA
:1027100027F049FC4FF40D71D4E7786CFDF7E2FF28
:1027200035A3D3E90023FEF771F98046386C89465A
:10273000FDF7D8FF02460B4640464946FDF786FEA8
:10274000C7E90A01CBE7B0EE480AF0EE680A48464E
:1027500006F12008FFF7B0FC48B13E4940F23623AD
:10276000374A384827F01FFC40F23621AAE7D7E95C
:102770000A2310461946FEF7B9FA38B14FF0004364
:10278000C6E90833304612F0C1FA67E697ED0A0B46
:102790004046FFF791FC0028F4D02E4940F23D233B
:1027A000274A284827F0FFFB40F23D218AE797EDB2
:1027B0000A7B8DED028B8DED047B97ED087B07F195
:1027C00058088DED007B4FF480714046224A24F07A
:1027D000B3FDB0F5807F0C48036843DD5A073FF432
:1027E0003DAE1E4AB9E600BF000000000000F03F09
:1027F000000000000000F87F0000000080842E41EF
:10280000333333333333D33F1C0A002033A5060060
:1028100068140020A409060023A50600188F0120D3
:1028200078FF00201A8F0120BC620700ADA30120B1
:10283000580A06008FA30600440A060057C6060081
:102840007AA20600D68C060078A306004C63070027
:102850004BA50600A38D06005DA5060078A5060021
:102860000000F87F03F00703022B7FF6F7AD6E46FA
:1028700088B006AA5D4BC2E905384FF40073938314
:102880005B4B42F8103F00234FF4E6510CF0FCFB89
:10289000B546E3E5574826F0DEFAFDF723FF0022B0
:1028A000554BFEF7B3F8554B804618788946FFF72D
:1028B00053FC404653EC102B4946FDF7C5FD21F073
:1028C0000043FB614E4BB86193ED087B804689461F
:1028D000D7E9060187ED047B53EC172BFEF7FCF9D3
:1028E00000283FD052465B4650465946FEF7FEF957
:1028F000044618BBD7E906012BF00043C7F800A037
:102900007B60D7E90023FEF7E7F9B8B121463D48DF
:102910006E4226F0CDFADFF814A13B48DAF8004009
:102920003444214626F09FFA024698B93546374B83
:10293000CAF800405C60C246CB468FE5D7E9042365
:1029400040464946FEF762F841EC100B26F0F4F9D8
:102950000646E0E72E4803685B07ECD02D4926F0D9
:102960007DFAE8E72C4ED6E9022310461946FEF719
:10297000BDF900283FF472AD002C3FF46FAD274B3A
:102980001B683B61002B3FF469AD2046FDF79AFEC2
:102990003B69804618468946FDF794FE02460B4681
:1029A00040464946FEF732F8C6E9020156E51A4BA1
:1029B000D7E91401C3E90001104B187803F082FF36
:1029C0004CE5154BD7E91401C3E90201F4E797F888
:1029D00050000A4B1870F1E7114940F28723114A61
:1029E000114827F0E0FA40F287216BE68EF70600E7
:1029F0000300000178FF002000408F40ADA30120BC
:102A0000000000205CFF0020A409060068FF0020F1
:102A10001C0A002023A506006814002060FF002087
:102A200057C606007AA20600D68C060064FF002076
:102A30002DE9F04F2DED028B054695B0B4488A463E
:102A4000174626F03CFA50B9B24A0121284628F030
:102A50005BFC002015B0BDEC028BBDE8F08FAE48EA
:102A600026F02DFA044608B1AC4AEEE7012004F046
:102A700057FA0AF18043013BA94957F82300FFF7B1
:102A8000B1FA68B901230AF1FF3A0493BAF1040FCD
:102A900008D8082128463B68A24A28F035FCD8E728
:102AA0000494F3E77B681A78222A08D19E4A012110
:102AB000284628F029FC012004F032FAC9E7002258
:102AC0001846114624F0C2FD984C00280346A06128
:102AD00001DA974AEBE7BB681A78222A01D1954AB6
:102AE000E5E700221846114624F0B0FD0028034611
:102AF000E06101DA904ADAE70021F86800F0BCFFF3
:102B000059EC108B84ED040B00220023404649460B
:102B1000FEF7CEF838B101212846CDE90089874A71
:102B200028F0F2FBC7E7049BCBB108212846844A72
:102B300028F0EAFBD4E904230821CDE90023284644
:102B4000804A28F0E1FB08212846A3697E4A28F044
:102B5000DBFB08212846E3697C4A28F0D5FB0426E4
:102B60009FED678BDFF814C208ACBCE80F000FC400
:102B7000BCE80F000FC49CE80F0084E80F00382069
:102B80002DF027F9044628B901212846704A28F07B
:102B9000BBFB90E76F4957F8260024F0BFFB4FF0CE
:102BA000000BDFF8B0910DF1200818B1BBF1060F52
:102BB00040F0E6809DED080B26F0BEF89DED0A0B77
:102BC000A061059026F0B8F8DDE90C89DDE9102355
:102BD0009DED0E7B43EC102B84ED047BC4E9028950
:102BE000E0618DED027B8346CDE9062326F0A4F853
:102BF000DDE90623206219461046FEF777F8DDE985
:102C00001223003818BF0120C4E90A2384F82400E5
:102C10000598FDF757FD3CA3D3E90023FDF7F6FE29
:102C200042464B46FDF7C8FD804658468946FDF7AB
:102C300049FD35A3D3E90023FDF7E8FEDDE90223D2
:102C4000FDF7BAFD0B46024649464046FDF7FEFB3E
:102C5000049BC4E90C01002B43D0082128463E4ABE
:102C6000F31E28F051FB08212846A3693B4A28F0AF
:102C70004BFB08212846E369394A28F045FBD4E993
:102C800002230821CDE900232846364A28F03CFBE0
:102C9000D4E904230821CDE900232846324A28F04C
:102CA00033FB94F82430002B76D1206AFDF70AFD1F
:102CB000CDE900012D4A0821284628F025FBD4E95A
:102CC0000A230821CDE900232846294A28F01CFBC5
:102CD000D4E90C230821CDE900232846254A28F011
:102CE00013FBD4E9028942464B4640464946FDF76C
:102CF000FDFF002853D0204AF31ED8E6AFF3008032
:102D0000000000000000F87F000000000020AC4040
:102D10008CFF0020EFA7060090FF0020D6A8060039
:102D2000F1A80600F9A8060064A9060068160020AC
:102D30008CA90600B6A90600DFA906000AAA0600AB
:102D400030AA06003AAA06004BAA060067AA0600A7
:102D500084AA06004ED90600B3AA0600C4AA06003B
:102D6000D6AA0600E8AA0600F9AA06000AAB0600E1
:102D70001BAB06002BAB060044AB0600201106007F
:102D8000002100F079FE4946A8EC020B00200BF16F
:102D9000010B24F0C3FA08E751EC180B88E7002276
:102DA000002340464946FDF779FF0028A3D1D4E926
:102DB000048942464B4640464946FDF797FF0028A6
:102DC00099D10022002340464946FDF767FF0028BD
:102DD00091D1D4E90A8942464B4640464946FDF71F
:102DE00085FF38B90022002340464946FDF756FFCB
:102DF000002880D100232360084B1A6C52B9C3E924
:102E00000F44013656457FF4ADAE012208211A70F9
:102E1000034A1BE614601C64F3E700BF6816002039
:102E200063AB0600000000002DE9F04F2DED048B90
:102E300001208BB004F074F801228D4BD3E8EF1F12
:102E4000C3E8E02F0028F9D19FED878BB0EE489AB8
:102E5000F0EE689A5BEC18AB55EC184B854F4FF0D1
:102E6000FF334FF0FF32844802A920F021FE0346D1
:102E700040B13A685107F2D0012138467F4A27F025
:102E8000B6FCECE79DF80830052B00F2DF80DFE8A8
:102E900013F006004700520065005D00C800784E40
:102EA0003378002B30D00121764BD3E8EF2FC3E8E5
:102EB000E01F0028F9D1002A2FD10C2011F03CFE90
:102EC00008B1714B43600023037211F01FFF04F03F
:102ED00069FA0346D0B903F0D9FEF269C2606B4AC1
:102EE000826011F013FF03F0D1FEB269C260684A3C
:102EF000826011F00BFF03F0C9FEB269C260654A3F
:102F0000826011F003FFAAE76FF0150359480268C9
:102F10005207A4D0604A0121B1E74FF0FF33F5E733
:102F200004F024F80346002899D052480268560756
:102F300095D05A4AEFE704F035FA034600288ED0C0
:102F40004C48026851078AD0554AE4E74D4825F0BD
:102F5000B6FF002883D09DED049B80E7494825F00B
:102F6000AEFF00283FF47BAFDDE906ABDDE90445A9
:102F70005B46002B06DB0BF10043CDF800A001936C
:102F8000DDE900AB22462B46204629469DED088B05
:102F9000FDF7ACFE00287FF462AF394E2046D6E93B
:102FA00004232946FDF77AFE30B3324EB0EE483A9C
:102FB000F0EE683AB0EE492AF0EE692A4BEC11AB1C
:102FC00045EC104B04F02AF8336803F00703022B9A
:102FD00004D903213046334A27F000FC03F0C6FF32
:102FE000034600283FF43BAF326852073FF437AF47
:102FF00001212A4A1F4842E7D6E9028942464B4648
:1030000040464946FDF772FE40B922462B464046EF
:103010004946FDF761FE00283FF421AFC6E90245AD
:103020001DE7184825F04BFF00283FF418AFB0EE1D
:10303000483AF0EE683AB0EE492AF0EE692A4BECD5
:1030400011AB45EC104B03F0E9FF08E716491748B0
:1030500040F2AF13164A26F0A6FF40F2AF11144813
:1030600026F09AFFAFF30080000000000000F87F18
:103070008CFF0020180A0020000F0020D99C0600B9
:103080006816002090FF00201C630700B8A8060007
:103090005AA30600A4A806009FAC0600B2AC060026
:1030A000C4AC0600D8AC060057C60600D68C060095
:1030B000BDA70600000000002DE9F04F2DED0E8B9E
:1030C0009FEDADEB9FEDAEDB9FEDAFBBF3B00EAF71
:1030D0004FF0FF334FF0FF32B54807F1140120F0F5
:1030E000E7FC034640B1B34802685207F0D0012123
:1030F000B14A27F07CFBEBE73B7D63B1012B00F08D
:103100007181AE4940F23913AD4AAE4826F04BFF0B
:1031100040F23911B9E149F62033A7F8483007F1F8
:103120001803FB6449F62233A7F8603007F128033F
:103130007B6697A3D3E90023C7E91C2349F6243310
:103140000022A7F87830A04B282007F1200AC7E911
:10315000202391A3D3E9002387ED14EB87ED16DB41
:1031600087ED1ABBC7E92223C7F87CA011F0E4FC65
:10317000054618B1954B43601823C36007F10E0054
:1031800004F0B2FE834650B9BB7BA3B18948036803
:1031900013F0060F03D002218D4A27F01FFB8D4B41
:1031A0000022AB604FF00043C5E90622C5E90433B5
:1031B000C5E90833CFE007F148044FF00208912237
:1031C000237807F110063E63C7F8348087F838800B
:1031D00032707370742301227F4807F1300125F0AB
:1031E0008CFE0028DBD14FF4C873C7E90C6833802C
:1031F00087F8388074230122774807F1300125F0E1
:103200007CFE0028CBD187F830003520002122F049
:1032100083FD07F1300004F067FE0028BFD197F866
:103220003030002B40F09B8063783E633370012385
:1032300007F10F060022C7E90F637B63072387F8B6
:10324000382087F8443074230222634807F13001A4
:1032500025F053FE0028A2D13078FDF733FAD4E9E7
:103260000223FDF7A9FAD4E90423FDF7EFF80022C1
:103270005A4B804689466668FDF710FD00288ED1BE
:1032800047A3D3E9002340464946FDF725FD002822
:1032900085D149464046FDF73FFD3860FDF722FAEB
:1032A00002460B4640464946FDF7CEF83EA3D3E919
:1032B0000023FDF781FA0022484B80468946FDF73E
:1032C000EDFC00287FF46BAF35A3D3E90023404623
:1032D0004946FDF701FD786000287FF460AF3B6848
:1032E000404649463360FDF717FD0BF1010BBBF17A
:1032F000030F706004F118047FF45FAFDAF8040084
:10330000FDF7F0F928A3D3E90023FDF77FFB804602
:10331000DAF800008946FDF7E5F902460B4640461B
:103320004946FDF793F82E4B07F11802C3E9000157
:10333000284BAB6005F1100392E8030083E803001B
:103340007B6807F12802C5E9063392E8030005F11E
:10335000200383E80300284611F0D8FCB8E60420D7
:10336000002122F0D9FC97F83030002B7FF451AFC8
:103370005AE700BFAFF300809A9999999999893FCC
:103380000000000000000000F6285C8FC2F500C0BD
:103390000000000000587840CDCCCCCCCCCCFC3F19
:1033A0000000C0FFFFFFDF410000000080842E41CD
:1033B000980E00202C0A0020D99C060057C6060053
:1033C0005AB20600D68C06000000783F4C63070016
:1033D00090B206009CB20600400906000000E0C161
:1033E000280000204FF0FF324FF0FF33484820F014
:1033F000ADFC00287FF46CAE464B93ED028BD3E915
:103400000045D3E908ABD3E90A8993ED04CB93EDEA
:10341000069B3F4820F00AFC22462B4620462946C0
:10342000FDF764FC00287FF453AE3B4B524693ED0E
:1034300000AB50465B465946FDF758FC07F1900635
:1034400030B342464B4640464946FDF74FFCF8B183
:103450008DED06AB8DED049B8DED028B4FF48071ED
:103460003046CDE900452D4A23F066FF0138FE289D
:1034700033D92B4940F22D132A4A2B4826F093FDCD
:103480002A4826F090FD40F22D11264826F084FDB2
:103490008DED0CCB8DED06AB8DED049B8DED028B90
:1034A0004FF48071CDE90A89CDE908ABCDE900453B
:1034B0001F4A07F1900023F03FFF0138FE280CD986
:1034C000174940F23313174A174826F06CFD174886
:1034D00026F069FD40F23311D7E71648036803F080
:1034E0000703022B7FF6F4AD6C4688B00EAA124B90
:1034F000C2E905364FF400739383104B42F8103F36
:1035000000234FF4E6510BF0BFFDA546E0E500BFF8
:103510000C0E00203000002028000020ABB2060076
:10352000CAB206005AB20600D68C0600ECB20600FB
:10353000FBB206002C0A00208EF7060003000001F3
:10354000B42310B588B08DF80B3003230DF10B02B6
:10355000009304467421224803AB25F099FD0246EE
:1035600030B12049204605F0DDF8002008B010BD3C
:10357000BDF80D309DF80C005BBA9BB243EA0040E9
:10358000FDF7A0F80022184BFDF716F912A3D3E9B6
:103590000023FDF711F941EC100B25F061FB0EA3A0
:1035A000D3E9002351EC100BFDF730FACDE900010F
:1035B00010210E4A0DEB010023F0BEFE102802463A
:1035C00001DD0B49CEE720460A4A04A905F09EF822
:1035D000CBE700BFAFF300800000000080842E41E5
:1035E0004009060093D506000000903F469A060069
:1035F000B6D506002CD606002DE9F04101F1804534
:10360000013D002188B0044652F82500904600F0A4
:1036100033FA57EC106B32463B4630463946FDF7DD
:1036200065FB48B158F825203549204605F07AF861
:10363000002008B0BDE8F0810022324B3046394608
:10364000FDF7BAF841EC100B25F00AFB51EC100B1A
:10365000FDF78AFB6FF07F43984228BF1846012888
:1036600038BF0120030C8DF8093043BAADF80A3099
:10367000B4238DF8083002AB039304230493022390
:103680008DF81430012274231F4803A925F0F9FC9A
:10369000024608B11D49C8E7BDF80A309DF8090087
:1036A0005BBA9BB243EA0040FDF70CF80022184BCE
:1036B000FDF782F810A3D3E90023FDF77DF841EC74
:1036C000100B25F0CDFA0CA3D3E9002351EC100B1D
:1036D000FDF79CF90F4ACDE90001122103A823F060
:1036E0002BFE1228024601DD0B499EE7204603A966
:1036F00005F004F89CE700BF0000000080842E4124
:10370000EDD50600000050404009060007D606002F
:103710000000903F29D60600B6D506000000000044
:103720002DE9F041C768044617F00705164609D091
:10373000274928487C23284A26F035FC7C21264846
:1037400026F02AFCD0F80880FF0840462CF0D6FB73
:10375000A0B32B462A46A0EB0800834224DBBA42E2
:103760002CD2103454F8327004EBC203B7F1004F7E
:10377000586802D1B0F1004F1DD0FCF7B3FF12A37F
:10378000D3E90023FDF742F9044638460D46FCF71D
:10379000A9FF02460B4620462946FCF757FEC6E91C
:1037A00000010020BDE8F08118F8031001332C2936
:1037B00008BF0132D1E700200849F0E76FF00100AF
:1037C000F0E700BFAFF300800000000080842E41CE
:1037D000AC9B0600D68C06007A9B06000000F87FA2
:1037E0002DE9F04706460F4690468AB02CF0F6F9D0
:1037F0004FF47A73A0FB034503FB0155E40B012F43
:1038000044EA45444FEAD53508D108213046CDE990
:103810000045294A27F078FD002013E0D8F804700D
:1038200026483946FEF7DEFB78B139462448FEF7D4
:10383000D9FB50B130463B460121224A27F064FDB6
:103840006FF004000AB0BDE8F087204618A3D3E962
:1038500000232946FDF706FC05460C46104619468E
:10386000194A0023FDF7FEFB80460F461046194615
:103870004EF660220023FDF7F5FB8246894610468E
:1038800019464FF47A720023FDF7ECFBCDE904A949
:10389000CDE90601CDE9082308213046CDE90287AC
:1038A000CDE90054094A27F02FFDB5E7AFF30080BA
:1038B000005C260500000000A1F30600B2F306003C
:1038C000B5F30600BEF3060080EE3600D5F3060021
:1038D0002DE9F04F87B0054617461E4603918368D1
:1038E00004AA5B689847002831DBDDE9044AA7FB9E
:1038F00004B307FB0A371AA3D3E900234FF0FF39BB
:1039000058463946FDF7FEFBDFF85C80D94578EB79
:10391000070302901ED312A3D3E90023A6FB04B42D
:1039200006FB0A4458462146FDF7ECFBD94578EBE7
:10393000040403460ED30299AA6899420DD3BDF838
:103940004010284600911468DDE90221A04707B025
:10395000BDE8F08F6FF08500F9E76FF01500F6E72E
:1039600000CA9A3B00000000FFC99A3B000000001B
:103970002DE9F04F3A4B85B0D3F8042392070BD5CD
:10398000D3F8042142B10022C3F80421354AD3F808
:103990000431136801331360334D0024A8464FF4FB
:1039A00080362F4FD7F8043306FA04F919EA030FCB
:1039B0002DD00123A340DB432C49D1E8EF2F02EAAD
:1039C0000300C1E8EC0FBCF1000FF6D122FA04F3BA
:1039D000DB0703D4264B53F82430C3B1204629F02B
:1039E00091FC19F09BFE4FF02002EFF3118382F35C
:1039F0001288BFF36F8F08EB041CDCE902AB504563
:103A000071EB0B010AD283F31188BFF36F8F10356E
:103A100014B105B0BDE8F08F0124C3E70020D5E95B
:103A200000129FED0D7B28600D4803938CED027B07
:103A30000292C0F84893204629F064FC039B83F36C
:103A40001188BFF36F8F0029E1D0029A5B46009284
:103A500052468847DBE700BFFFFFFFFFFFFFFFFF86
:103A600000500150348B012098270020288B012022
:103A700040510150000000002DE9F84F8146884672
:103A800000232DED028B19F803605A1C202E00F044
:103A90007A81A6F10901042940F275812B2E154681
:103AA00032D02D2E35D0042446F02003692B4DD082
:103AB0006E2B5DD000224FF00A0A94461346104642
:103AC000114614F4006E59D046F02007A7F1610B9F
:103AD000BBF1050F52D8573FFFB2BA4553DC46F051
:103AE000200604F08007782E40F0DC80002F00F0E4
:103AF000D98050EA010A40F0D58044F4006E4FF0BE
:103B0000100A1FFA8EFE4DE0042419F802609D1C75
:103B1000CAE74424F9E719F80520681C42F020029E
:103B20008A4229D0A24A934217D000259FED9A8B52
:103B3000B8F1000F02D04D44C8F80050B0EE480A6A
:103B4000F0EE680ABDEC028BBDE8F88F9FED948B18
:103B5000984B13F8011B0029DDD16306E8D518EE58
:103B6000901A18EE102A01F1004343EC182BDFE7FE
:103B70009FED8D8B904BECE70546EAE7A6F1300709
:103B8000FFB257452DDA44F0800E14F4807F04F420
:103B900000761FFA8EFE0AD0002F18BF43F00103F3
:103BA00006B9013219F805607446013589E706B196
:103BB000013AAAFB00060AFB0161381841F1000135
:103BC00050EA0106EED0BAF10A0F0CF1010C0CBF5D
:103BD00010260F26B445E5DD44F4C07E1FFA8EFEA4
:103BE000E0E7FE2F7FF47BAFA70558D514F08006E1
:103BF0009BD050EA010605F1FF3500F0C180260593
:103C000040F1A9803632B1F5800FC0F088806B4F4B
:103C1000B1F5000F80F08880BA42C0F2858003437E
:103C2000084603F00306032E04D003F00606062E12
:103C300040F08380043341F10000B0F5000F7CD3E5
:103C40000132B2F5806F80F2988000234FF480112A
:103C500002F2FF3221F480111E4641EA025747EC7E
:103C6000186BB0EE480AF0EE680A25F03FF801380C
:103C7000022804D8524B22222CF0F4FC1A50B0EE49
:103C8000480AF0EE680A25F031F8013802283FF6BC
:103C900064AF4B4B22222CF0E5FC1A505DE744F454
:103CA000007E9BE71FFA87FA002F6ED0BEF1000F4F
:103CB0000CBF65277027BE429BD119F805606F1CA9
:103CC0002B2E04D02D2E24D144F48064A4B219F8F4
:103CD0000760A6F13007092F8BD8AF1C3D4640F294
:103CE000D34A00274FF00A0B5745DCBF303E0BFB91
:103CF000076719F805600135A6F1300EBEF1090F0E
:103D0000F2D9660548BF7F42260548BF92003A4473
:103D10006FE7A6F1300EBEF1090FDFD969E7001891
:103D200002F1FF3249416EE7460800F0010001321E
:103D300046EAC176490830436AE7B2F5806F1CDA7B
:103D40009B08B0F5800F4FEA900143EA8073BFF4FF
:103D50007FAF002280E70CEB020313F5A27F09DDA1
:103D6000B3F59B7F09DA00F02FF8B0EE408AF0EE51
:103D7000608A84E79FED088B81E79FED098B7EE7E2
:103D80009FED058BE9E613467DE69FED038B5546D7
:103D9000CEE600BFAFF3008000000000000000008E
:103DA000000000000000F07F000000000000F87F2D
:103DB0008C4F0700894F0700864F070002FCFFFF6A
:103DC0000C000000000000002DE9FF478046164669
:103DD0000F46002900F0A280B1FA81F4341B002EB6
:103DE00004F10A04C0F2A280304624F051FD0444DC
:103DF000304624F053FDA4EB0609054669463046DB
:103E000024F074FDA9EB05036A4640467D3339462C
:103E10002CF0D9F8A64282460D4600F38380B9F112
:103E20003F0F00F381804FF0FF33A9F12000C9F16B
:103E3000200103FA00F003FA09F223FA01F103FA70
:103E400009F3024328EA03030A4327EA0202134361
:103E50000CBF01200020002D00F08A80B5FA85F308
:103E6000E31A40F2FE7203F23E43934200F389806C
:103E7000002B23EAE376D4BF01223246121BA2F2C2
:103E80003341A2F23447A2F25344C1F1200C2AFA82
:103E900001F325FA04F4C7F1200E05FA0CFC25FA0B
:103EA00001F105FA0EFE43EA0C03A2F2544CA2F211
:103EB000544223432AFA07F425FA0CFC44EA0E0480
:103EC00044EA0C04C7F1200C14F0010F54D0A8B13F
:103ED0004FF0FF3000FA02F200FA07F4144320FA20
:103EE0000CF2B840144303F001022AEA000A25EA62
:103EF00004054AEA020A5AEA050A3DD0013341F1B3
:103F00000002C2F3130253EA020138D0184642EA13
:103F1000065141EC100B04B0BDE8F087B0FA80F414
:103F200020345BE7012096E7002094E7C6F1000902
:103F3000484624F0B3FC241A484624F0AFFCA61BE4
:103F40000546694648462E4424F042FD6A464046EE
:103F500006F17C0339462CF036F882460D46404681
:103F6000394624F0ABFC81458CBF0020012072E76C
:103F7000BAFA8AF3203373E7C1F31302C6E70136B6
:103F8000C4E79FED010BC6E7000000000000F07FD2
:103F900008B524F0ABFE9FED020B08BDAFF3008027
:103FA000000000000000F87F08B5104AD2F86C321B
:103FB00023F00D03C2F86C3210F022FF48B10C4818
:103FC00003685B0703D001210A4A26F007FC0020A2
:103FD00008BD102010F0B0FD08B1074B4360074B3F
:103FE00083600023037310F091FEF0E700258450F6
:103FF000F8090020768C06008C620700A064070098
:104000000122014B1A737047C0090520014B0020A3
:1040100019607047042D002001480BF037BB00BF2A
:104020008414060010B5064B0C4618680AF0ECFB29
:104030002146BDE8104003460A220248184700BF47
:10404000042D00208414060010B5134B42689A42D8
:1040500018D1047AA4B9114A114B116899420FD1B1
:1040600002F580410B7B5BB18B68C068B3F5804F74
:104070000C7328BF4FF480430A49043200F0B0FAB1
:10408000002010BD084909485823094A25F08BFF34
:104090005821074825F080FF44620700C0C904206A
:1040A0005555AAAAA58C060057C60600D68C060050
:1040B000B28C060010B5064B064C1A68A24206D018
:1040C00044F21002002118462CF0EFF9046010BDF4
:1040D000C0C904205555AAAAF8B5194B0C46194A6F
:1040E0001968914209D018496423184A184825F0E4
:1040F0005AFF6421154825F04FFF03F58046756887
:10410000B5F5804F07D313496523104A104825F0B1
:104110004AFF6521EEE7B4F5804F0FD82A19B2F5B2
:10412000804F28BF00252F1D01462246D8192CF0AC
:1041300095F9B368254423447560B3602046F8BD03
:10414000C0C904205555AAAAF38C0600B28C0600FB
:10415000D68C06001F8D060008B5114B42689A42A6
:1041600013D1037ACBB94FF41A730E4A0E49C068C3
:1041700000F036FA88B10D4940230D4A0D4825F06C
:1041800012FF40210A4825F007FF0B494723084A40
:10419000084825F008FF4721F4E7002008BD00BFCC
:1041A00044620700B88D0600768D0600A38D0600D8
:1041B000818D0600D68C060057C606002DE9F04F0B
:1041C0008D4C8BB002AF4FF0FF324FF0FF338B4876
:1041D0001FF0DCFF0028F6D1894B1D68002D00F090
:1041E0000581B5F5C02F00F20481F86107F11C01CB
:1041F0000E200BF025FD064670B323685A0705D044
:10420000012103467F4A204626F0F1FAB2467E4855
:1042100012F0C6FDF86908B126F0DFFB22685307EB
:1042200005D0012153462046784A26F0E0FA0125C0
:10423000774BD3E8EF2FC3E8E15F0029F9D11020D5
:1042400010F07AFC08B1734B4360734B05721B6826
:10425000C36010F05BFDB6E7A846AB4681467861C7
:104260004FF480526D49684812F0B8FD051E7CDDA0
:10427000AB4509DA6A49BD236A4A6B4825F093FECB
:10428000BD21684825F088FEC9F30B033BB167499F
:10429000BE23644A644825F086FEBE21F1E7B5F5E9
:1042A000805F06DA5D4BFF21C5F5805258192CF06E
:1042B000FCF85A492A46786907F0DAFD4946FB6955
:1042C00078613B6109F58053FB60EA46ADF5007DFE
:1042D00002AA4FF400733869C7E9012126F07EFB7A
:1042E000D7E90121C8B123685B0704D0012120462A
:1042F0004F4A26F073FA4FF48052D5464946F86982
:1043000026F096FB8246B8B1226856073FF47FAF8D
:104310000346484A012138481FE0131F02F5FE7288
:1043200053F8040F0130E6D19A42F9D1FB6801F548
:1043300000719942D546C8D14FF480534946374A57
:10434000F86926F060FB824650B1226855073FF4B9
:104350005EAF0346384A0121204626F048FA56E768
:10436000BBEB050BA9447FF47BAF0025DFF8AC90D5
:10437000B8F5805FC34628BF4FF4805B4A465B4672
:104380003146F86926F02AFB824630B12268500790
:104390003FF43DAF294A5346DDE728465A46494691
:1043A00007F066FDB8EB0B0805465E44E0D17B697B
:1043B00098420DD02368590707D07B6901210093EB
:1043C0001F4A0346204626F01CFA6FF0150A1EE726
:1043D000504628F059FB824630B1226852073FF41C
:1043E00016AF184A034695E709F01CFE6FF0150A50
:1043F00014E76FF00B0A11E7CC0900201810002019
:10440000102D002021900600142D00201B91060085
:10441000082D0020446207000C2D0020229101206D
:104420005990060034900600D68C06007A9006005B
:1044300096900600A8900600BC900600D09006005A
:10444000E3900600039106000022F0B5ADF5077D6C
:104450000146064602A8CDE9022212F019FD0346E4
:10446000A8B9254D0DF2111744A902A812F078FD44
:104470000446D0B1214803685B0704D001212346DC
:104480001F4A26F0B4F902A812F0E4FD09E01B4827
:104490000268520703D001211A4A26F0A8F96FF0EA
:1044A000010420460DF5077DF0BD9DF8113103B3E1
:1044B0009DF81031002BD7D129463846FDF792FDE3
:1044C0000028D1D1859A104B104D1A60C5E90044DF
:1044D000AC603346FF210E4A009704A822F02CFF5F
:1044E000FF2806D80122284604A912F0FDFB044645
:1044F000C9E76FF00104C6E749910600CC09002026
:104500003A9106002B910600102D0020142D00205A
:104510005891060030B5254A43680446934289B055
:1045200018D10021224BD3E8EF2FC3E8E01F002869
:10453000F9D16ABB257A012D2AD1E068FFF784FF03
:1045400030BBE2681B4B1A601B481FF0DBFD28469E
:1045500009B030BD194A93421CD18268184B9A4267
:1045600016D1037BA3B9002000210E22CDE906015C
:10457000CDE90232CDE9003304934FF40062114BD0
:10458000114912481FF0FAF8114910481EF0FCFEBC
:104590000020DDE70F49104840F24D130F4A25F087
:1045A00002FD40F24D110D4825F0F6FC4462070073
:1045B000082D00200C2D0020181000208C62070010
:1045C000A0640700BD410300002604205012002013
:1045D0005E91060057C60600D68C06003490060091
:1045E00030B5A7B0009115461C4680210346144AF9
:1045F00006A822F0A1FE01387F2803D96FF00B0036
:1046000027B030BD0023132206A903A8CDE9033348
:10461000059312F069FB0028F2D10146022203A89B
:1046200012F018FC0028EBD12246294603A812F00C
:10463000F3FBA042E2D103A812F0B2FBE0E700BF17
:104640005891060008B50821024B034A26F05CFE8B
:10465000002008BD6D9206007E92060008B5124B40
:1046600042689A4216D18268104B9A4210D1037B5D
:1046700073B928F011FA58B928F02AFA034638B16C
:104680000B480268520703D001210A4A26F0AFF80E
:10469000002008BD084909482923094A25F083FC60
:1046A0002921074825F078FC8C620700A0640700E8
:1046B000BC0900208E92060057C60600D68C060064
:1046C000B29206002DE9704355EC104B0646224687
:1046D0002B4620462946FCF709FBC0B925F00049C6
:1046E0004FF0FF32204649460C4BFCF7FFFA38B931
:1046F0004FF0FF3220464946084BFCF7D9FA30B15B
:1047000045EC104B3046BDE87043FDF785BC4FF0DB
:104710000043C6E900330020BDE87083FFFFEF7F50
:1047200010B50B4C236893B10A48036813F0060FC9
:1047300003D00221084A26F051F80121206826F012
:1047400005FEBDE810400021044824F077BB10BDF1
:104750001CFD0020200A0020EB920600202D0020E6
:1047600010B504460021054824F068FB20460821C6
:10477000034A26F0C9FD002010BD00BF282D0020EF
:104780000193060007B5064B08211B68054A0093F4
:10479000054B1B6826F0B8FD002003B05DF804FB54
:1047A0009C0800201B930600A008002030B5104C88
:1047B0008BB0237C05460893E068FBF7A5FFCDE9A5
:1047C0000601A068FBF7A0FFCDE904016068FBF7D4
:1047D0009BFFCDE902012068FBF796FF054ACDE972
:1047E00000012846082126F08FFD00200BB030BDC7
:1047F0003C2D0020309306000022054B054883F82D
:10480000C12083F8832183F845220DF01FBD00BF2E
:1048100066A10120679306002DE9F043A3B004468A
:10482000FFF7EAFF054648B1034601212046354A15
:1048300026F06AFD002023B0BDE8F083324E96F8E2
:10484000E03A93B108212046304A26F05DFD01236D
:104850008021A6F5805202A806F0E8FF002839D092
:10486000012120462A4A26F04FFD08212046294AE8
:1048700026F04AFD0027284EDFF8AC80DFF8909044
:1048800001233246802102A806F0D0FF58B34A46E1
:104890000121204626F038FD06F5D3560FB3082136
:1048A00020461E4A26F030FD1D4E1E4FDFF87C804C
:1048B00096F8C130F3B106F14103009342462B460E
:1048C0000821204626F020FD0135032D06F1C20601
:1048D000EED1AFE708212046134A02AB26F014FDC3
:1048E000C3E70127CCE742460821204602AB26F069
:1048F0000BFDD1E72B463A460821204626F004FD61
:10490000E2E700BF7193060038F200208C930600A6
:10491000AD930600D2930600CC170600ED93060077
:1049200066A101201F9406007B0207001194060077
:1049300008B50122024907F085F8002008BD00BF34
:1049400038E200201846002370B5049C0E4621680A
:104950001546237249B90A490A48BD230A4A25F077
:1049600022FBBD21084825F017FB6268B24205D141
:10497000A8476368834204BF01232372002070BDEF
:1049800060940600D68C06003094060008B5084BEB
:1049900093F8E02A2AB90321064A26F0B5FC002044
:1049A00008BD0821044A03F5266326F0ADFCF6E7AE
:1049B00038F20020809406009894060070B5022911
:1049C0000646144615688AB007D02B460821414A8E
:1049D00026F09AFC00200AB070BD3F492846FDF73A
:1049E00001FB014640BB6068FFF746F851EC100B35
:1049F000FCF7DAF9394B1860384C2046FDF78AF994
:104A0000237C0893E068FBF77FFECDE90601A068F0
:104A1000FBF77AFECDE904016068FBF775FECDE98E
:104A200002012068FBF770FE2D4ACDE90001082144
:104A3000304626F069FCCDE72A492846FDF7D2FA30
:104A4000014648B96068FFF717F851EC100BFCF706
:104A5000ABF9224B5860CFE723492846FDF7C2FA4D
:104A6000014648B96068FFF707F851EC100BFCF7F6
:104A70009BF91A4B9860BFE71C492846FDF7B2FA2C
:104A8000014648B96068FEF7F7FF51EC100BFCF7E0
:104A90008BF9124BD860AFE715492846FDF7A2FA0B
:104AA000014690B96068FEF7E7FF51EC100BFCF788
:104AB0007BF907EE900AF5EE407AF1EE10FA14BF9A
:104AC00001220022054B1A7496E72B46032130463B
:104AD000084A7DE7A3940600371407003C2D002008
:104AE00026950600A3A10600DCDD06000FA1060046
:104AF000F094060008950600012937B504460BD14D
:104B0000144B186AFBF700FECDE90001124A082198
:104B1000204626F0F9FB06E0022907D01368082199
:104B20000E4A26F0F1FB002003B030BD5068002192
:104B3000FEF7A2FF51EC100BFCF736F905460548CD
:104B40000562FDF7FFF82846FBF7DEFD044ACDE9D4
:104B50000001DCE7502D0020879506005F950600D8
:104B60007E950600012937B504460BD1144BD86950
:104B7000FBF7CAFDCDE90001124A0821204626F0C4
:104B8000C3FB06E0022907D0136808210E4A26F06D
:104B9000BBFB002003B030BD50680021FEF76CFF66
:104BA00051EC100BFCF700F905460548C561FDF70F
:104BB000C9F82846FBF7A8FD044ACDE90001DCE767
:104BC000502D0020C09506009F950600B795060061
:104BD000012937B504460BD1144B9869FBF794FDB6
:104BE000CDE90001124A0821204626F08DFB06E09F
:104BF000022907D0136808210E4A26F085FB002001
:104C000003B030BD50680021FEF736FF51EC100BA9
:104C1000FCF7CAF8054605488561FDF793F8284674
:104C2000FBF772FD044ACDE90001DCE7502D0020BE
:104C3000EB950600D1950600E2950600012937B5EF
:104C400004460BD1144B5869FBF75EFDCDE900011A
:104C5000124A0821204626F057FB06E0022907D019
:104C6000136808210E4A26F04FFB002003B030BD28
:104C700050680021FEF700FF51EC100BFCF794F890
:104C8000054605484561FDF75DF82846FBF73CFD04
:104C9000044ACDE90001DCE7502D00200F96060004
:104CA000F595060006960600012937B504460BD196
:104CB000144B1869FBF728FDCDE90001124A0821C1
:104CC000204626F021FB06E0022907D013680821C0
:104CD0000E4A26F019FB002003B030BD50680021B9
:104CE000FEF7CAFE51EC100BFCF75EF805460548CE
:104CF0000561FDF727F82846FBF706FD044ACDE9D4
:104D00000001DCE7502D00203396060019960600BE
:104D10002A960600012937B504460BD1144BD868F2
:104D2000FBF7F2FCCDE90001124A0821204626F0EB
:104D3000EBFA06E0022907D0136808210E4A26F094
:104D4000E3FA002003B030BD50680021FEF794FE66
:104D500051EC100BFCF728F805460548C560FCF738
:104D6000F1FF2846FBF7D0FC044ACDE90001DCE75F
:104D7000502D0020579606003D9606004E960600E0
:104D8000012937B504460BD1144B9868FBF7BCFCDE
:104D9000CDE90001124A0821204626F0B5FA06E0C6
:104DA000022907D0136808210E4A26F0ADFA002028
:104DB00003B030BD50680021FEF75EFE51EC100BD1
:104DC000FBF7F2FF054605488560FCF7BBFF284668
:104DD000FBF79AFC044ACDE90001DCE7502D0020E6
:104DE0007B9606006196060072960600012937B58B
:104DF00004460BD1144B5868FBF786FCCDE9000143
:104E0000124A0821204626F07FFA06E0022907D040
:104E1000136808210E4A26F077FA002003B030BD4F
:104E200050680021FEF728FE51EC100BFBF7BCFF89
:104E3000054605484560FCF785FF2846FBF764FCFE
:104E4000044ACDE90001DCE7502D00209E960600C3
:104E50008596060095960600012937B504460BD1C4
:104E6000144B1868FBF750FCCDE90001124A0821E9
:104E7000204626F049FA06E0022907D013680821E7
:104E80000E4A26F041FA002003B030BD50680021E0
:104E9000FEF7F2FD51EC100BFBF786FF05460548C7
:104EA0000560FCF74FFF2846FBF72EFC044ACDE9CE
:104EB0000001DCE7502D0020C0960600A7960600F2
:104EC000B7960600F8B5002301280C46C1E9023365
:104ED0000B604B600B7415D84FF4D3521F4D204B11
:104EE0002E4602FB003303F140071A4603CABA42BA
:104EF00028606960134605F10805F6D12660194B54
:104F0000E360F8BD0428FCD81749023891F88321E2
:104F100091F8C13002B1013391F8452202B1013359
:104F20009842EEDA002215460F4E96F8C17067B12E
:104F3000904209D1C220094B00FB051141221846BD
:104F40002BF08CFA2060DAE701320135032DD8D03E
:104F5000934206F1C206E8DCD3E700BF22A101209C
:104F6000EC3106002951030066A1012037B5044643
:104F70000121154823F062FF054630B12046134A4F
:104F800026F0C2F9002003B030BD48F20402014609
:104F90000F482BF08AFA2946204626F0D7F90D4B08
:104FA000082120460C4A1C6026F0AEF94FF0FF3273
:104FB0004FF0FF330948CDE900234FF4A02200232E
:104FC00021F05EFBDEE700BF202D0020C996060021
:104FD000D44700201CFD002010970600300B002055
:104FE00010B5002104460C4823F028FF30B90121F8
:104FF00020460A4A26F088F9002010BD08482AF009
:1050000040FE20460821074A26F07EF9012120466D
:1050100026F09CF9F0E700BF202D0020389706000D
:10502000300B0020599706000F4A08B58021012354
:1050300002F5D35006F0FAFB60B10C4803685B0739
:1050400003D001210A4A25F0C9FB8022002109482A
:105050002BF02BFA0122084B002183F8E02A0748A5
:10506000BDE8084023F0EABE38E20020200A002014
:105070008397060098FC002038F20020282D00209D
:1050800030B5041E0D46A7B002DB21B1012918D0AE
:105090006FF0150013E0012CFADC4FF4D3521C49D9
:1050A0001C4802FB04112BF0D9F9FFF7BDFF0822C1
:1050B000194801A98DF8045002940DF08DF827B01D
:1050C00030BD022CE4DCC222144B02FB043393F803
:1050D000C130002BDCD023468021114A06A822F0E3
:1050E0002BF90C4B0F4903934FF4D3530493002334
:1050F00003AA06A88DF814300DF0CEF80028DED1F2
:105100009DF81430002BD0D16FF00400D7E700BF1A
:10511000CC17060038E20020B997060066A10120EE
:10512000A097060045490300F8B505461746FFF766
:1051300063FB044618B103461A4A012114E01A4ED3
:105140003F6896F8C1309BB139463046FCF74AFFBC
:1051500070B901212046FFF793FF034608B1134AB7
:10516000EBE70821124B134A284626F0CDF813E04E
:105170000134032C06F1C206E3D139460E48FCF790
:1051800031FF60B139460D48FCF72CFF30B12146A4
:1051900028460B4A26F0B8F80020F8BD012000216F
:1051A000D9E700BF7193060066A10120D1970600E0
:1051B00098FC0020F7970600EC3106004C4C0600E6
:1051C000049806002DE9F04F04460D46B5B00021C5
:1051D0006D48164623F032FE28B901216B4A20465D
:1051E00026F092F816E0022D06D008213368684AAE
:1051F000204626F089F80DE070680A4622F026FA6B
:10520000022806460AD9034601212046614A009534
:1052100026F07AF8002035B0BDE8F08F5E482AF01D
:1052200030FD0121204626F091F85C490A6812B948
:105230005B4A0321D3E701235A48A1F5004106F058
:1052400091FA584F034630B1574A0321204626F0C1
:105250005BF8564AEDE70146554823F0EFFD33462B
:105260008021544A814614A822F066F8FFF7C4FA58
:10527000054610B10346504A5CE007F5805393F8A9
:10528000203A002B53D0402207F5D15104A82AF030
:10529000DAFDDFF848B107F5D15A002347499E42AD
:1052A0000BD091F8C12042B104A8CDE90213FCF75C
:1052B00099FEDDE902138046D0B10133032B01F1E1
:1052C000C201ECD140223E4804A92AF0BCFDC22311
:1052D0003A4A03FB062393F8C1306BBB4FF4D35219
:1052E000304914A80CF078FF034668B3354A21E032
:1052F00053465A464021009504A822F01DF83F2845
:1053000008DDC0F5D4531E33A0F13F024146F81822
:105310002BF0CBF853465A464021009504A822F0C2
:105320000BF8421E3E2A034603D80135B5E76FF05D
:105330001503254A01215BE714A825F0EDFD03467E
:105340000028CBD0214AF5E7FFF756FA034600289C
:1053500091D101213046FFF793FE054610B1034677
:105360001B4AE7E720461B4A082125F0CDFF2946C6
:10537000194823F063FDB9F1000118BF01210C4861
:1053800023F05CFD46E700BF202D00203897060083
:105390001C9806002C980600300B0020D4C7002073
:1053A0004E980600742D00206A9806007E9806002C
:1053B0002C2D0020A09706007193060066A1012005
:1053C00094470020ED980600AA980600D29806009F
:1053D0000A99060027990600282D0020A4980600A7
:1053E0002DE9F04F80460F4691469A460024304EF4
:1053F000DFF8DCB08BB0192123465A4603A821F010
:105400009BFF404603A9FCF7EDFDF0B9B7F5D35F6C
:105410001BD13A4650462749C847051E0ADA264896
:105420000368590711D02346244A0095012125F02D
:10543000E8F90AE012D12048036813F0060F04D0FF
:10544000022123461E4A25F0D2F90134032C06F12D
:10545000C206D0D100200BB0BDE8F08FB5F5D35F08
:1054600007D0154803685A07EFD0164A234600951F
:10547000DCE741221449304606F141052AF02EFDB1
:105480000123802128460B4A06F0D0F960B10A4872
:1054900003685B0703D001210C4A25F09FF98022A5
:1054A000002128462BF001F8012386F8C130CCE713
:1054B00066A10120D8C70020200A002048990600D4
:1054C000699906007E990600F8E10020839706009E
:1054D000AA970600F7B506461D4BD3E8AF3F33B990
:1054E00001211C4A25F010FF002003B0F0BD022965
:1054F00005D008211368184A25F006FFF4E757681D
:105500003846FCF781FD0446144800F500452B6839
:10551000E218B2F5004F05D901213046104AC3F513
:105520000043E9E72246394618442AF097FF2B68E2
:1055300023442B604FF0FF324FF0FF330948CDE991
:1055400000234FF4A022002321F09AF8CCE700BFFB
:10555000202D0020AB990600E4990600D4470020D6
:10556000FC990600300B0020F0B5364CA9B005467A
:10557000A069FBF7C9F8CDE906016069FBF7C4F83B
:10558000CDE904012069FBF7BFF8CDE90201E0682D
:10559000FBF7BAF82C4ACDE90001802108A821F0D8
:1055A000CBFE802807DD03212846284A25F0ACFEE3
:1055B000002029B0F0BD264BD3E8AF3F0821284694
:1055C000244A25F0A1FE244A08AB0821284625F0EC
:1055D0009BFED4E900327BB3B2FBF3F1CDE90021AD
:1055E000284608211D4A25F08FFE206830B3FBF7BE
:1055F00069F802460B46D4E90801FBF707FA41ECCB
:10560000100B23F061FA002251EC100B144BFBF746
:10561000D3F806460F46E069FBF776F80022104BF8
:10562000FBF7CAF8CDE90067CDE902010D4A082170
:10563000284625F069FEBBE71946CFE7002600277C
:10564000E9E700BF481300202D9A0600499A06009A
:105650002C2D0020629A06007C0207006D9A06003D
:1056600000408F40999A0600012970B504461646FD
:1056700006D808211368234A25F046FE002070BD95
:10568000032917D120499068FCF7ACFCB0FA80F5EB
:105690006D0976681D493046FCF7A4FC014658B1F7
:1056A00030461B49FCF79EFCD0B133460121204611
:1056B000184AE1E70025ECE7174BD3E8AF3F16485F
:1056C00023F0BCFB0B4620460821144A25F01CFEA3
:1056D000002DD3D00121124823F0B0FB114A09E07C
:1056E0000D4BD3E8AF3F53B90F4B93F8E01A0029A5
:1056F000E5D10E4A0821204625F006FEBEE701212D
:10570000DDE700BFC49A0600D59A060057C606001A
:10571000021B0700DF9A06002C2D0020499B060083
:10572000242D0020569B060038F20020FE9A060029
:1057300008B5044BD3E8AF3F0821034A25F0E4FD48
:10574000002008BD2C2D00206F9B0600F0B5BDB0D9
:10575000A44A43680446934208AF6ED1A24BD3E8F3
:10576000AF3F002B3CD0C3685D0709D09F49A048DC
:105770007C23A04A24F017FC7C219E4824F00CFCDA
:10578000DB08032B2CD12AF029FA4FF47A72A0FB04
:10579000020302FB0131C00B40EA414007F1600304
:1057A000C90BC7E91A0107F1580220469249009334
:1057B00007F1500305F056FED7E9144522462B4663
:1057C00020462946FBF792FA30B9002220462946A6
:1057D0008A4BFBF763FA28B10021894823F02EFB9E
:1057E000002027E0D7E9162310461946FBF77EFA7A
:1057F0000028F5D1D7E9182310461946FBF776FAA9
:105800000028EDD1002200237E4807F150011EF050
:1058100095F870B17C4B1B6813F0060F04D0022181
:105820007A4A794824F0DAFF794A93680133936021
:10583000D6E70120D437BD46F0BD764A934226D143
:105840008389DFED756A07EE903AF8EE677AF1EE3C
:10585000677A87EEA67A714B714A83ED007A437AB4
:10586000704D981E41424141003B18BF0123117009
:105870006D4A1370237A032B06D12B78032B03D0A8
:1058800000215F4823F0DAFA237A2B70A8E7674AF1
:10589000934240F0E9808368DD68002D00F0878046
:1058A0002B78002B00F0838028466149FCF79AFB97
:1058B00048B329460025402207F10C002AF00EFBD0
:1058C00007F10C0087F84C50FCF79EFB2B465F213C
:1058D00007F10C02834236D1564907F10C00FCF760
:1058E00081FB30B1544907F10C00FCF77BFB90BB06
:1058F00001204FF4D352514902FB001150482AF0C5
:10590000ADFDFFF791FB0121374823F097FA3E48A0
:10591000036803F00703022B7FF662AFA3686C46AF
:10592000DB68224688B04749C4E905134FF4007389
:10593000A383454B42F8103F00234FF4E65109F092
:10594000A3FBA5464CE712F8015B0133202D08BFED
:1059500002F8011CBEE700253C4E314607F10C0061
:10596000FCF740FB002837D196F8C130002B33D02C
:10597000374B93E807002B4687E807008021354A1C
:1059800007F1500021F0D8FC3A46334907F15000A6
:105990000CF082FC034610B93A7A002AB1D11A48B9
:1059A0000268510703D001212C4A24F020FF002176
:1059B0000D4823F043FA124823F040FA284B1248CE
:1059C00083F8E01A036813F0060F3FF409AF0221D1
:1059D000244A24F003FF03E70135032D06F1C20634
:1059E000BBD1E4E74C6307002C2D0020AC9B0600E4
:1059F000D68C06007A9B0600E59B06000000E03F7F
:105A0000282D0020340F0020200A0020F49B0600DF
:105A100048130020A462070000007A4468050020B3
:105A200065A1012063A1012064A10120FC610700A0
:105A300058FC0020EC3106004C4C0600CC17060048
:105A400038E200205B9C06000300000166A10120F3
:105A500050110600A097060045490300089C060067
:105A600038F200202A9C0600224DAB4236D18268D3
:105A7000214B9A427FF4B4AE037B002B7FF4B0AE8F
:105A80000CF040FD034638B11C480268520703D0B1
:105A900001211B4A24F0ABFE00220023CDE906239E
:105AA00000230E22CDE90133CDE9032300934FF407
:105AB0008052144B144915481DF060FE14491348D8
:105AC0001DF062FC10200FF037F800B14560114B5B
:105AD0008360002303730FF019F981E60E490F4824
