:020000040003F7
:100000003DB8F3960000000000020000C863040041
:100010000000000000000000E0729DC4000000002D
:10002000FFFFFFFFFFFFFFFFFFFFFFFFFFFFFFFFE0
:10003000FFFFFFFFFFFFFFFFFFFFFFFFFFFFFFFFD0
:10004000FFFFFFFFFFFFFFFFFFFFFFFFFFFFFFFFC0
:10005000FFFFFFFFFFFFFFFFFFFFFFFFFFFFFFFFB0
:10006000FFFFFFFFFFFFFFFFFFFFFFFFFFFFFFFFA0
:10007000FFFFFFFFFFFFFFFFFFFFFFFFFFFFFFFF90
:10008000FFFFFFFFFFFFFFFFFFFFFFFFFFFFFFFF80
:10009000FFFFFFFFFFFFFFFFFFFFFFFFFFFFFFFF70
:1000A000FFFFFFFFFFFFFFFFFFFFFFFFFFFFFFFF60
:1000B000FFFFFFFFFFFFFFFFFFFFFFFFFFFFFFFF50
:1000C000FFFFFFFFFFFFFFFFFFFFFFFFFFFFFFFF40
:1000D000FFFFFFFFFFFFFFFFFFFFFFFFFFFFFFFF30
:1000E000FFFFFFFFFFFFFFFFFFFFFFFFFFFFFFFF20
:1000F000FFFFFFFFFFFFFFFFFFFFFFFFFFFFFFFF10
:10010000FFFFFFFFFFFFFFFFFFFFFFFFFFFFFFFFFF
:10011000FFFFFFFFFFFFFFFFFFFFFFFFFFFFFFFFEF
:10012000FFFFFFFFFFFFFFFFFFFFFFFFFFFFFFFFDF
:10013000FFFFFFFFFFFFFFFFFFFFFFFFFFFFFFFFCF
:10014000FFFFFFFFFFFFFFFFFFFFFFFFFFFFFFFFBF
:10015000FFFFFFFFFFFFFFFFFFFFFFFFFFFFFFFFAF
:10016000FFFFFFFFFFFFFFFFFFFFFFFFFFFFFFFF9F
:10017000FFFFFFFFFFFFFFFFFFFFFFFFFFFFFFFF8F
:10018000FFFFFFFFFFFFFFFFFFFFFFFFFFFFFFFF7F
:10019000FFFFFFFFFFFFFFFFFFFFFFFFFFFFFFFF6F
:1001A000FFFFFFFFFFFFFFFFFFFFFFFFFFFFFFFF5F
:1001B000FFFFFFFFFFFFFFFFFFFFFFFFFFFFFFFF4F
:1001C000FFFFFFFFFFFFFFFFFFFFFFFFFFFFFFFF3F
:1001D000FFFFFFFFFFFFFFFFFFFFFFFFFFFFFFFF2F
:1001E000FFFFFFFFFFFFFFFFFFFFFFFFFFFFFFFF1F
:1001F000FFFFFFFFFFFFFFFFFFFFFFFFFFFFFFFF0F
:1002000040A10420A55C0400BDC10500915C040070
:10021000915C0400915C0400915C0400915C04001A
:10022000000000000000000000000000B95E0400B3
:10023000915C040000000000055E0400915C040075
:1002400055620400556204005562040055620400C2
:1002500055620400556204005562040055620400B2
:1002600055620400556204005562040055620400A2
:100270005562040055620400556204005562040092
:100280005562040055620400556204005562040082
:100290005562040055620400556204005562040072
:1002A0005562040055620400556204005562040062
:1002B0005562040055620400556204005562040052
:1002C0005562040055620400556204005562040042
:1002D0005562040055620400556204005562040032
:1002E0005562040055620400556204005562040022
:1002F0005562040055620400556204005562040012
:100300005562040055620400556204005562040001
:1003100055620400556204005562040055620400F1
:1003200055620400556204005562040055620400E1
:1003300055620400556204005562040055620400D1
:1003400055620400556204005562040055620400C1
:1003500055620400000000000000000000000000E2
:10036000000000000000000000000000000000008D
:10037000000000000000000000000000000000007D
:10038000000000000000000000000000000000006D
:10039000000000000000000000000000000000005D
:1003A000000000000000000000000000000000004D
:1003B000000000000000000000000000000000003D
:1003C000000000000000000000000000000000002D
:1003D000000000000000000000000000000000001D
:1003E000000000000000000000000000000000000D
:1003F00000000000000000000000000000000000FD
:10040000DEE61E284CBBCE8F023500003C0000000B
:10041000C8630400010000000002030000020300A2
:10042000FFFF02910000000000000000000000003B
:10043000000000000000000000000000FFFFFFFFC0
:1004400081F0004102E000BF83F0004330B54FEA85
:1004500041044FEA430594EA050F08BF90EA020FF2
:100460001FBF54EA000C55EA020C7FEA645C7FEA85
:10047000655C00F0E2804FEA5454D4EB5555B8BFA8
:100480006D420CDD2C4480EA020281EA030382EA19
:10049000000083EA010180EA020281EA0303362DAB
:1004A00088BF30BD11F0004F4FEA01314FF4801C7E
:1004B0004CEA113102D0404261EB410113F0004F90
:1004C0004FEA03334CEA133302D0524263EB430347
:1004D00094EA050F00F0A780A4F10104D5F1200EE5
:1004E0000DDB02FA0EFC22FA05F2801841F1000140
:1004F00003FA0EF2801843FA05F359410EE0A5F114
:1005000020050EF1200E012A03FA0EFC28BF4CF044
:10051000020C43FA05F3C01851EBE37101F00045FA
:1005200007D54FF0000EDCF1000C7EEB00006EEB07
:100530000101B1F5801F1BD3B1F5001F0CD3490891
:100540005FEA30004FEA3C0C04F101044FEA4452E8
:1005500012F5800F80F09A80BCF1004F08BF5FEA6F
:10056000500C50F1000041EB045141EA050130BD4F
:100570005FEA4C0C404141EB0101013C28BFB1F561
:10058000801FE9D291F0000F04BF01460020B1FAAC
:1005900081F308BF2033A3F10B03B3F120020CDA7F
:1005A0000C3208DD02F1140CC2F10C0201FA0CF05D
:1005B00021FA02F10CE002F11402D8BFC2F1200CC2
:1005C00001FA02F120FA0CFCDCBF41EA0C01904078
:1005D000E41AA2BF01EB0451294330BD6FEA0404C1
:1005E0001F3C1CDA0C340EDC04F11404C4F12002AC
:1005F00020FA04F001FA02F340EA030021FA04F3BE
:1006000045EA030130BDC4F10C04C4F1200220FA14
:1006100002F001FA04F340EA0300294630BD21FA52
:1006200004F0294630BD94F0000F83F4801306BF18
:1006300081F480110134013D4EE77FEA645C18BF0C
:100640007FEA655C29D094EA050F08BF90EA020FA3
:1006500005D054EA000C04BF1946104630BD91EA9B
:10066000030F1EBF0021002030BD5FEA545C05D19E
:100670004000494128BF41F0004130BD14F58004DD
:100680003CBF01F5801130BD01F0004545F0FE4151
:1006900041F470014FF0000030BD7FEA645C1ABF86
:1006A000194610467FEA655C1CBF0B46024650EABD
:1006B000013406BF52EA033591EA030F41F40021E9
:1006C00030BD00BF90F0000F04BF0021704730B56F
:1006D0004FF4806404F132044FF000054FF0000144
:1006E00050E700BF90F0000F04BF0021704730B505
:1006F0004FF4806404F1320410F0004548BF4042DA
:100700004FF000013EE700BF42004FEAE2014FEA2E
:1007100031014FEA02701FBF12F07F4393F07F4F09
:1007200081F06051704732F07F4208BF704793F00C
:100730007F4F04BF41F40021704730B54FF460741F
:1007400001F0004521F000411CE700BF50EA010222
:1007500008BF704730B54FF000050AE050EA0102CB
:1007600008BF704730B511F0004502D5404261EB3B
:1007700041014FF4806404F132045FEA915C3FF47C
:10078000D8AE4FF003025FEADC0C18BF03325FEA19
:10079000DC0C18BF033202EBDC02C2F1200300FACA
:1007A00003FC20FA02F001FA03FE40EA0E0021FAEF
:1007B00002F11444BDE600BF70B54FF0FF0C4CF4DD
:1007C000E06C1CEA11541DBF1CEA135594EA0C0F8F
:1007D00095EA0C0F00F0DEF82C4481EA030621EACA
:1007E0004C5123EA4C5350EA013518BF52EA033505
:1007F00041F4801143F4801338D0A0FB02CE4FF0B7
:100800000005E1FB02E506F00042E0FB03E54FF0E6
:100810000006E1FB03569CF0000F18BF4EF0010EDE
:10082000A4F1FF04B6F5007F64F5407404D25FEADA
:100830004E0E6D4146EB060642EAC62141EA55518D
:100840004FEAC52040EA5E504FEACE2EB4F1FD0CCF
:1008500088BFBCF5E06F1ED8BEF1004F08BF5FEA4D
:10086000500E50F1000041EB045170BD06F00046FF
:1008700046EA010140EA020081EA0301B4EB5C04AC
:10088000C2BFD4EB0C0541EA045170BD41F48011A4
:100890004FF0000E013C00F3AB8014F1360FDEBFC9
:1008A000002001F0004170BDC4F10004203C35DAA5
:1008B0000C341BDC04F11404C4F1200500FA05F328
:1008C00020FA04F001FA05F240EA020001F00042C9
:1008D00021F0004110EBD37021FA04F642EB06013F
:1008E0005EEA430E08BF20EAD37070BDC4F10C0469
:1008F000C4F1200500FA04F320FA05F001FA04F22D
:1009000040EA020001F0004110EBD37041F1000118
:100910005EEA430E08BF20EAD37070BDC4F1200523
:1009200000FA05F24EEA020E20FA04F301FA05F28B
:1009300043EA020321FA04F001F0004121FA04F233
:1009400020EA020000EBD3705EEA430E08BF20EA03
:10095000D37070BD94F0000F0FD101F0004640003D
:1009600041EB010111F4801F08BF013CF7D041EABF
:10097000060195F0000F18BF704703F000465200C3
:1009800043EB030313F4801F08BF013DF7D043EA94
:100990000603704794EA0C0F0CEA135518BF95EA4A
:1009A0000C0F0CD050EA410618BF52EA4306D1D1D1
:1009B00081EA030101F000414FF0000070BD50EAF0
:1009C000410606BF1046194652EA430619D094EA7A
:1009D0000C0F02D150EA013613D195EA0C0F05D164
:1009E00052EA03361CBF104619460AD181EA0301B8
:1009F00001F0004141F0FE4141F470014FF0000070
:100A000070BD41F0FE4141F4780170BD70B54FF00A
:100A1000FF0C4CF4E06C1CEA11541DBF1CEA13558A
:100A200094EA0C0F95EA0C0F00F0A7F8A4EB05046C
:100A300081EA030E52EA03354FEA013100F0888063
:100A40004FEA03334FF0805545EA131343EA12632C
:100A50004FEA022245EA111545EA10654FEA0026E1
:100A60000EF000419D4208BF964244F1FD0404F59A
:100A7000407402D25B084FEA3202B61A65EB0305F6
:100A80005B084FEA32024FF480104FF4002CB6EBB3
:100A9000020E75EB030E22BFB61A754640EA0C0033
:100AA0005B084FEA3202B6EB020E75EB030E22BF73
:100AB000B61A754640EA5C005B084FEA3202B6EBB4
:100AC000020E75EB030E22BFB61A754640EA9C0073
:100AD0005B084FEA3202B6EB020E75EB030E22BF43
:100AE000B61A754640EADC0055EA060E18D04FEA01
:100AF000051545EA16754FEA06164FEAC30343EAA1
:100B000052734FEAC2025FEA1C1CC0D111F4801F6D
:100B10000BD141EA00014FF000004FF0004CB6E766
:100B200011F4801F04BF01430020B4F1FD0C88BF05
:100B3000BCF5E06F3FF6AFAEB5EB030C04BFB6EB10
:100B4000020C5FEA500C50F1000041EB045170BD03
:100B50000EF0004E4EEA113114EB5C04C2BFD4EB30
:100B60000C0541EA045170BD41F480114FF0000EB4
:100B7000013C90E645EA060E8DE60CEA135594EA30
:100B80000C0F08BF95EA0C0F3FF43BAF94EA0C0F33
:100B90000AD150EA01347FF434AF95EA0C0F7FF4A8
:100BA00025AF104619462CE795EA0C0F06D152EAFC
:100BB00003353FF4FDAE1046194622E750EA4106E0
:100BC00018BF52EA43067FF4C5AE50EA41047FF4F1
:100BD0000DAF52EA43057FF4EBAE12E74FF0FF3C56
:100BE00006E000BF4FF0010C02E000BF4FF0010C27
:100BF0004DF804CD4FEA410C7FEA6C5C4FEA430CA0
:100C000018BF7FEA6C5C1BD001B050EA410C0CBFEE
:100C100052EA430C91EA030F02BF90EA020F002050
:100C2000704710F1000F91EA030F58BF994208BFB7
:100C300090422CBFD8176FEAE37040F00100704774
:100C40004FEA410C7FEA6C5C02D150EA013C07D1CB
:100C50004FEA430C7FEA6C5CD6D152EA033CD3D016
:100C60005DF8040B704700BF8446104662468C4610
:100C70001946634600E000BF01B5FFF7B7FF002843
:100C800048BF10F1000F01BD4DF808EDFFF7F4FF6C
:100C90000CBF012000205DF808FB00BF4DF808EDF7
:100CA000FFF7EAFF34BF012000205DF808FB00BF1A
:100CB0004DF808EDFFF7E0FF94BF012000205DF83C
:100CC00008FB00BF4DF808EDFFF7CEFF94BF0120F1
:100CD00000205DF808FB00BF4DF808EDFFF7C4FFEA
:100CE00034BF012000205DF808FB00BF4FEA410C33
:100CF0007FEA6C5C02D150EA013C0AD14FEA430C16
:100D00007FEA6C5C02D152EA033C02D14FF0000052
:100D100070474FF0010070474FEA410212F5001290
:100D200015D211D56FF47873B3EB625212D94FEA32
:100D3000C12343F0004343EA505311F0004F23FA1C
:100D400002F018BF404270474FF00000704750EA71
:100D5000013005D111F0004008BF6FF0004070472E
:100D60004FF00000704700BF4A0011D212F5001288
:100D700011D20DD56FF47873B3EB62520ED44FEAF3
:100D8000C12343F0004343EA505323FA02F0704773
:100D90004FF00000704750EA013002D14FF0FF30B1
:100DA00070474FF0000070474FEA4102B2F1E04354
:100DB00024BFB3F5001CDCF1FE5C0DD901F0004C42
:100DC0004FEAC0024CEA5070B2F1004F40EB830092
:100DD00008BF20F00100704711F0804F21D113F1BE
:100DE0003872BCBF01F00040704741F480114FEAF7
:100DF0005252C2F11802C2F1200C10FA0CF320FA80
:100E000002F018BF40F001004FEAC1234FEAD3239C
:100E100003FA0CFC40EA0C0023FA02F34FEA430306
:100E2000CCE77FEA625307D150EA01331EBF4FF08F
:100E3000FE4040F44000704701F0004040F0FE40AA
:100E400040F40000704700BF80F0004002E000BFA7
:100E500081F0004142001FBF5FEA410392EA030FA5
:100E60007FEA226C7FEA236C6AD04FEA1262D2EBEF
:100E70001363C1BFD218414048404140B8BF5B42F4
:100E8000192B88BF704710F0004F40F4000020F08D
:100E90007F4018BF404211F0004F41F4000121F0A3
:100EA0007F4118BF494292EA030F3FD0A2F10102ED
:100EB00041FA03FC10EB0C00C3F1200301FA03F12B
:100EC00000F0004302D5494260EB4000B0F5000F4E
:100ED00013D3B0F1807F06D340084FEA310102F10D
:100EE0000102FE2A51D2B1F1004F40EBC25008BFBF
:100EF00020F0010040EA03007047490040EB000089
:100F0000013A28BFB0F5000FEDD2B0FA80FCACF189
:100F1000080CB2EB0C0200FA0CF0AABF00EBC250B6
:100F200052421843BCBFD0401843704792F0000FA4
:100F300081F4000106BF80F400000132013BB5E7F7
:100F40004FEA41037FEA226C18BF7FEA236C21D06D
:100F500092EA030F04D092F0000F08BF08467047D2
:100F600090EA010F1CBF0020704712F07F4F04D1A0
:100F7000400028BF40F00040704712F100723CBFB3
:100F800000F50000704700F0004343F0FE4040F4DD
:100F9000000070477FEA226216BF08467FEA23639B
:100FA0000146420206BF5FEA412390EA010F40F486
:100FB000800070474FF0000304E000BF10F00043D2
:100FC00048BF40425FEA000C08BF704743F09643B9
:100FD00001464FF000001CE050EA010208BF7047D4
:100FE0004FF000030AE000BF50EA010208BF70475B
:100FF00011F0004302D5404261EB41015FEA010C70
:1010000002BF84460146002043F0B64308BFA3F167
:101010008053A3F50003BCFA8CF2083AA3EBC25349
:1010200010DB01FA02FC634400FA02FCC2F1200268
:10103000BCF1004F20FA02F243EB020008BF20F09F
:101040000100704702F1200201FA02FCC2F1200205
:1010500050EA4C0021FA02F243EB020008BF20EAFA
:10106000DC7070477BB972B90029BEBF00204FF019
:10107000004106E008BF00281CBF6FF000414FF0A0
:10108000FF3000F057B8ADF1080C6DE904CE00292F
:1010900009DB002B1ADB00F057FEDDF804E0DDE988
:1010A000022304B07047404261EB4101002B1BDB7F
:1010B00000F04AFEDDF804E0DDE9022304B040421E
:1010C00061EB4101524263EB43037047524263EBD1
:1010D000430300F039FEDDF804E0DDE9022304B04B
:1010E000404261EB41017047524263EB430300F021
:1010F0002BFEDDF804E0DDE9022304B0524263EB8D
:101100004303704753B94AB9002908BF00281CBFE0
:101110004FF0FF314FF0FF3000F00CB8ADF1080C8C
:101120006DE904CE00F010FEDDF804E0DDE90223F5
:1011300004B07047704700BF70B52DED048BF0EE22
:10114000408A92ED000AB4EEE80AD2ED019AD2ED9F
:10115000C87AF1EE10FA1646B0EE609A05460C46D3
:1011600079EEC09AF4EEE78AC0F29780F1EE10FAB9
:10117000B4EEE80A72DBF1EE10FA67D40023D5ED85
:10118000C85A94EDC86A94EDC75AD5EDC76AB0EE57
:10119000657AE5EE096AA6EE097A78EEE77A37EE27
:1011A000667A67EE277A87EEA98A38EE258AA6EE58
:1011B000098AFBB338EEC00A80EE290A2FF03AF90B
:1011C000F0EE007A96ED007AB7EE006A78EEC75A34
:1011D00030EE277A70EE066ABDEEC77A17EE103A47
:1011E000BDEEE67A6FF0404117EE102AC5EEA97AFF
:1011F0000B440A4405EB830104EB830377EEC07ACA
:1012000093ED007A91ED005A27EE877A05EB82057F
:1012100004EB820436EE676A27EE858AD5ED006A14
:10122000D4ED005AF0EE477AA6EE868AE5EE867A8D
:10123000A9EE278AB0EE680A00F0AAFC9FED240A06
:10124000002808FE000ABDEC048B70BDF4EEE78AAE
:10125000F1EE10FA4CBF0123002390E7F1EE10FAF3
:101260002DD4002395ED006AD4ED006A95ED017A46
:1012700094ED015AF0EE465AA5EE097AE6EE895A47
:1012800078EEC07A37EE657A67EE877A87EEA98ABC
:1012900038EE068AA6EE898A8BE7F1EE10FAB4EEF4
:1012A000E80ABFF668AFF1EE10FA05D5F4EEE78A6A
:1012B000F1EE10FA3FF57EAF9FED058ABAE7F4EE46
:1012C000E78AF1EE10FA4CBF01230023CAE700BF02
:1012D000000000002DE9F0412DED048B01F6B478FB
:1012E000F0EE408A98ED000AB4EEE80A1F4601F6D7
:1012F000B873D3ED009A01F58053D3ED447AF1EE43
:1013000010FA0D46B0EE419A0646144679EEC09AA0
:10131000F4EEE78AC0F2BD80F1EE10FAB4EEE80A0E
:10132000C0F29880F1EE10FA00F18C800022D3ED2B
:101330009C5A93EDF46A93EDF35AD3ED9B6AB0EEA9
:10134000657AE5EE096AA6EE097A78EEE77A37EE75
:10135000667A67EE277A87EEA98A38EE258AA6EEA6
:10136000098ACAB338EEC00A80EE290A2FF062F863
:1013700098ED007AF0EE007AF7EE006A78EEC75A40
:1013800030EE276A30EE267AC5EEA97ABDEEC77A2E
:1013900037EEC00AFDEEC67A17EE102A17EE903A25
:1013A00005EB820205EB830505F5805595ED448A32
:1013B00095ED9C6A02F5805276EEC06A20EE088AAE
:1013C00092ED447AD2ED9C7A20EE060AA7EE268AA8
:1013D000A7EEA60AA9EE008AB0EE680A00F0D8FBD4
:1013E000DFED397A4FF0804200284FF07E5308FE3F
:1013F000278AC4ED018AC4ED037A84ED048AA260D1
:10140000002223603168314B616171681B68A16102
:10141000B1682F48E161F1682162316961627169E7
:101420006063E3622363A162F368C4ED0F7AC4EDE5
:10143000107A84F84420A363C7ED008ABDEC048BC6
:10144000BDE8F081F4EEE78AF1EE10FA4CBF01221C
:1014500000226CE7F1EE10FA2DD4002293ED456ADC
:10146000D3ED9D6A93ED467A93ED9E5AF0EE465A7F
:10147000A5EE097AE6EE895A78EEC07A37EE657AFB
:1014800067EE877A87EEA98A38EE068AA6EE898A01
:1014900067E7F1EE10FAB4EEE80ABFF643AFF1EEFB
:1014A00010FA05D5F4EEE78AF1EE10FA3FF55AAFDF
:1014B0009FED058A90E7F4EEE78AF1EE10FA4CBF53
:1014C00001220022CAE700BF0000000098080020A7
:1014D000000020412DE9F04F2DED088BD0ED027A70
:1014E000FDEEE77A17EE906A01F5C96900EB860810
:1014F000F0EE409A98ED02BA99ED000AB4EECB0AEC
:101500001F4601F24C63D3ED00AAF1EE10FA8DB044
:1015100001F6681B04460D46B0EE609AB0EE41AA93
:10152000B0EE618A9BED007A7AEEC0AA019206F1D4
:10153000FF36C0F29A82B4EEC7BAF1EE10FAB4EEFA
:10154000CB0AC0F2AA82F1EE10FA00F10683002362
:1015500005F5805A0AF6182191ED006A0AF2F46145
:10156000D1ED005A0AF6142191ED005A0AF5DE6118
:10157000D1ED006AF0EE657AE5EE0A6AE6EE0A7AE7
:101580003BEE477A77EEE67A67EE877AC7EEAA8A6D
:1015900078EEA58AE6EE0A8AFBB33BEE400A80EEBF
:1015A0002A0A2EF047FFF0EE007A70EE277A98EDC7
:1015B000027AD9ED006AB7EE006AFDEEE77A77EEBF
:1015C000665A30EE067A17EE903AC5EEAA6ABDEE7C
:1015D000C77A05EB830303F58053D3EDF48A03F256
:1015E000F46336EEC00AD3ED006A17EE103A05EB4D
:1015F000830303F5805393EDF47A03F2F46336EE3C
:10160000406A60EE288AD3ED007A20EE260AE7EEE3
:10161000068AA7EE860AEAEE008AB0EE4B0A00F0D0
:10162000B7FAD4ED026AFDEEE66A16EE903A0AF6D3
:101630001C2292ED007A0022012103EB460A0AF1F6
:10164000300303920DEB030202F8251C9DF90E30C6
:10165000DFEDEF5A04EE903A9DF90F309FEDF06AFE
:1016600005EE103A9DF90C3027EE257A05EE903AFA
:101670009DF90D30B1EE488A00288DED046A8DED9C
:10168000056AD4ED047AF8EEE44AB8EEC55A48FE8D
:10169000868A06EE103AC8EE076AD4ED031A24EEE5
:1016A000A77AF8EEE55AB8EEC66A67EE857A0CAB13
:1016B00003EB860242ED086A94ED0F2A9DED04BA11
:1016C0009DED058AA5EEA17AE1EE867AABEE027A6F
:1016D000E2EE087AD4ED052A94ED063AD4ED073A05
:1016E00094ED084A8DED067ACDED077AB6000DF13E
:1016F000180C04F10C0003A908AA04F1140E11F946
:10170000013B06EE903A91F90130F8EEE66A07EEF9
:10171000903AF8EEE77A27EE847A67EE837AA6EEBF
:10172000A37AE6EEA27A64EE876A25EE077AE5EE02
:10173000A76AA6EE277AE2EC016A5CF8043B82ED28
:10174000017A40F8043B8645D9D1D8ED020A9FEDD5
:10175000B10A2EF073FEF0EE400A9FEDAF0A2EF0B4
:1017600098FE88ED020AD4ED0A7ADDED085A2BEED8
:10177000275A9DED096A68EE277ADDED0A6A9DED2C
:101780000B7AABEE276AA8EE277AEBEE055AE8EE65
:10179000056A84ED066AC4ED076A84ED087AC4ED33
:1017A000055A04EB8A0AD4ED0E4ADAED047A77EE94
:1017B000E47AC7ED077A4A46F0EE4A0A284698EDE1
:1017C000020A05F54971FFF7B7FC94ED096A87ED48
:1017D000030A98ED027AD9ED007AB4EEE77A002296
:1017E000A9EE680AF1EE10FADBED006A30EE46BAB7
:1017F0000492059240F37681B4EEE67AF1EE10FAA7
:1018000040F17081B4EE677AF1EE10FA00F0A38136
:10181000B4EE667AF1EE10FA23D1012205F57B6170
:1018200091ED005A05F68C41D1ED004A05F6AC71F8
:1018300091ED004A05F68841D1ED005AB0EE646A98
:10184000E4EE0A5AA5EE0A6A77EE666A36EE656A33
:1018500066EE266A86EEAA8A38EE248AA5EE0A8A01
:10186000FAB337EE670A80EE2A0A2EF0E3FDF0EEB7
:10187000007AB7EE006A70EE277AD9ED006A98ED2B
:10188000027A70EE065AFDEEE77A37EE665A17EEE8
:10189000903AFDEEE55AC5EE2A6A05EB830215EE95
:1018A000903A02F6681102F68C4236EEC00AD2ED8A
:1018B000005A91ED008A05EB830505F6681205F6DE
:1018C0008C4536EE406A20EE088AD2ED006AD5EDEE
:1018D000007A20EE250AA6EE868AA7EE860AAAEEF0
:1018E000008AB0EE470A00F053F9DFED4D6A06F1C9
:1018F0003003002808FE268A0DEB030606ED088A51
:10190000DDED046A94ED077A9DED058A66EE874A5F
:1019100094ED084AD4ED067AD4ED053AE8EE044A8F
:1019200028EE275A66EEA77AA6EEA35AE8EE047AC6
:1019300028EE077A28EE248A94ED093AA6EE858AE5
:10194000D4ED035A38EE038A94ED046AA6EEA37A26
:10195000C7EE88AAC7EE08BAF0EE467AB0EE657A0E
:1019600039EECBAAAAEE2B7AEAEE2A7A84ED037A34
:10197000C4ED047A9FED270AD8ED020A2EF05EFD31
:10198000F0EE400A9FED240A2EF083FDDFED237A6E
:1019900088ED020A6BEEC84AD4ED055A94ED066A4A
:1019A000D4ED076A94ED087A2AEEC85A68EE277AD1
:1019B0002AEE0AAAAAEE857AB4EEE7AAEBEEA45ABA
:1019C000ABEE856AEAEEA46A84ED087AC4ED055AA6
:1019D00084ED066AC4ED076AF1EE10FADAED047AD6
:1019E000C4BF94ED0D7A67EE877A019BC8BFCAED3C
:1019F000047AC4ED019A84ED0F9AC4ED0E7A84ED59
:101A00000B0A83ED000A94F84420D2B10AE000BF2B
:101A1000000061450AD723BCAE47813F0000444225
:101A20000000000094ED0C7AD8ED027A77EEC77AC8
:101A3000F5EEC07AF1EE10FAC4BF83ED007AB0EE95
:101A4000470A84ED0C0A87ED00BAC7ED018AC7ED9D
:101A500002AA87ED049ADAF8103087ED068A7B61D6
:101A60000DB0BDEC088BBDE8F08F0BD5B4EEC7BA56
:101A7000F1EE10FA06D5B4EE47BAF1EE10FA7CD1C9
:101A8000012365E5B4EEC7BAF1EE10FABFF65FAD1B
:101A90005FED1D8A05F5805ABFE5F1EE10FA64D4BA
:101AA000002305F5805A9AEDF56A0AF5DF61D1ED5C
:101AB000006A0AF2FC619AEDF67A91ED005AF0EEB6
:101AC000465AA5EE0A7AE6EE8A5A7BEE407A37EE5F
:101AD000657A67EE877AC7EEAA8A78EE868AE6EE9E
:101AE0008A8A59E5B4EEE77AF1EE10FA06D9B4EE37
:101AF000E67AF1EE10FA2BDB00228FE60022B4EE3C
:101B0000E67AF1EE10FABFF689AE05F54961D1ED3E
:101B1000005A05F5176191ED006A05F69441D1ED83
:101B2000004A05F66C1191ED005AA4EE8A6AF0EEB7
:101B3000454AE5EE8A4A77EE676A36EE646A66EEF3
:101B4000866A86EEAA8A38EE058AA5EE8A8A87E634
:101B50001FED4D8AC5E60122D1E7B4EEC7BAF1EE1A
:101B600010FA4CBF01230023F2E4B4EEC7BAF1EE41
:101B700010FA4CBF0123002393E701F5805A0CE5CE
:101B80000B6843624B6883620B7A80F8443070477D
:101B900008B510EE100AFEF7B7FD02460B46FFF738
:101BA000A5F8003818BF012008BD00BF014B93ED18
:101BB000000A704798080020014B93ED000A704717
:101BC00098080020054B036043608360C360036195
:101BD00043618361C3610362704700BF0000C07F3F
:101BE00060B370B5C368044688B023B30E4648227C
:101BF000002114482EF09FFC134D144B94ED021A53
:101C0000D4ED010A94ED000AE4680DF1080C1C60A3
:101C10000FCDACE80F0095E803000A4A8CE80300FA
:101C200001AB214602A8FFF755FB0EB1019B3360C3
:101C3000002008B070BD6FF01500FAE76FF01500D6
:101C4000704700BFF88C012014870600F48C012037
:101C5000F4EE600AF1EE10FA10B52DED048B6CBFB6
:101C60009FED1C8AB0EE608AF0EE408AB0EE419A99
:101C7000F0EE619A1849194A194B09788CB012682C
:101C80001B688DF80C10044601A9164801920293B6
:101C9000FFF776FF144BB0EE680A1968F0EE691A88
:101CA000B0EE491AF0EE480A6A460E4804ABFFF758
:101CB00011FCDFED0E7A9DED000A20EE270A2CB113
:101CC0000B4B0499059A21606260A3600CB0BDECD7
:101CD000048B10BD00000000C3250420A8080020CC
:101CE000A4080020F88C0120F48C01200000C842D8
:101CF0000000C07F0148FFF759BF00BFF88C0120EA
:101D0000024B01461A680248FFF756BFF48C0120C7
:101D1000F88C012078B100B50749D0F800C04268BE
:101D200090F810E0054B0648C1F800C080F800E0CC
:101D30001A605DF804FB7047A8080020A408002082
:101D4000C3250420704700BF2DE9F04786468C4626
:101D50000846089E154674461946002B40F0C1807F
:101D60008542B2FA82F245D94AB1C2F1200300FAA3
:101D700002FC954094402EFA03F343EA0C0C4FEA20
:101D8000154EA8B2230CBCFBFEF80EFB18CC08FBCA
:101D900000F943EA0C43994528D9EB1808F1FF37BD
:101DA00004D2994502D9A8F102072B44A3EB0903F9
:101DB000A4B2B3FBFEFC0EFB1C330CFB00F044EAA8
:101DC0000344A04214D92C190CF1FF3304D2A042D1
:101DD00002D9ACF102032C44241A43EA07401EB195
:101DE000D440002334607360BDE8F0874746DDE7E8
:101DF0006346F1E792BB431B01214FEA154EAFB298
:101E0000200CB3FBFEFC0EFB1C330CFB07F840EA76
:101E10000343984561D9EB180CF1FF3004D2984583
:101E200002D9ACF102002B44A3EB0803A4B2B3FB2C
:101E3000FEFC0EFB1C330CFB07F744EA0344A742ED
:101E40004DD92C190CF1FF3304D2A74202D9ACF1C1
:101E500002032C44E41B43EA0040C0E7C2F1200324
:101E60009540944020FA03F12EFA03F34FEA154E01
:101E70009040AFB20343B1FBFEFC0EFB1C10190CEB
:101E80000CFB07F841EA0041884522D969180CF19A
:101E9000FF3004D2884502D9ACF102002944A1EBFD
:101EA00008019BB2B1FBFEFC0EFB1C110CFB07F7FB
:101EB00043EA01439F420ED9EB180CF1FF3104D2E3
:101EC0009F4202D9ACF102012B44DB1B41EA0041E5
:101ED00093E76046E3E76146F7E76046A4E76346B9
:101EE000B8E7834206D916B9002108467CE7C6E95F
:101EF00000E0F9E7B3FA83F78FB9834201D3724563
:101F000008D8BEEB020460EB030301209C461EB917
:101F1000002169E73846FAE7C6E9004CF8E7C7F15F
:101F2000200CBB400EFA07F522FA0CF42EFA0CF145
:101F3000BA401C4320FA0CF3B8404FEA144901435D
:101F40001FFA84FEB3FBF9F809FB18300B0C08FBF1
:101F50000EFA43EA00439A4540D9E31808F1FF30EE
:101F600004D29A4502D9A8F102002344A3EB0A0344
:101F700089B2B3FBF9F809FB183308FB0EFE41EAFE
:101F800003418E452CD9611808F1FF3304D28E45E8
:101F900002D9A8F10203214443EA0040A1EB0E015B
:101FA000A0FB02984145CE46434602D306D14D459B
:101FB00004D20138B9EB020E68EB0403002EA7D05F
:101FC000B5EB0E0261EB030101FA0CFC22FA07F3F8
:101FD000F9404CEA0303C6E9003199E74046C5E7FA
:101FE0004346D9E710F8012B11F8013B012A28BF1D
:101FF0009A42F7D0D01A7047034611F8012B03F824
:10200000012B002AF9D17047034613F8012B002A4F
:10201000FBD1181A013870472DE9F84355EC104BE5
:102020000646002220462946214BFEF737FE90BB8C
:102030001BA3D3E9002320462946FEF74DFE50BBE3
:1020400029462046FEF768FE0746FEF74BFB024690
:102050000B4620462946FEF7F7F913A3D3E90023E0
:10206000FEF7AAFB0022124B80468946FEF716FEB9
:1020700088B90BA3D3E9002340464946FEF72CFE5E
:10208000044640B9404649463760FEF745FE706059
:102090002046BDE8F8836FF02100FAE7AFF3008037
:1020A0000000C0FFFFFFDF410000000080842E41E0
:1020B0000000E0C1000000002DE9F84355EC104B92
:1020C0000646002220462946214BFEF7E7FD90BB3D
:1020D0001BA3D3E9002320462946FEF7FDFD50BB94
:1020E00029462046FEF718FE0746FEF7FBFA024691
:1020F0000B4620462946FEF7A7F913A3D3E9002390
:10210000FEF75AFB0022124B80468946FEF7C6FDB9
:1021100088B90BA3D3E9002340464946FEF7DCFD0E
:10212000044640B9404649463760FEF7F5FD706009
:102130002046BDE8F8836FF02100FAE7AFF3008096
:102140000000C0FFFFFFDF410000000080842E413F
:102150000000E0C100000000F7B5002841D12E4C7E
:102160003A21A3682046DB689847024648B12B48CD
:102170000368590702D02A4926F0B6FE0024294DEB
:102180002BE06A462021204626F0A6FE024628B112
:10219000224803685B07F1D02349EDE70198FEF779
:1021A000A1FA1BA3D3E90023FEF730FC04460098F4
:1021B0000D46FEF797FA02460B4620462946FEF7E3
:1021C00045F91A4B0446D3E900670D4632463B46B3
:1021D00030463946FEF78AFD78B145EC104B03B026
:1021E000F0BD1349134840F20313134A27F021FFAF
:1021F00040F20311104827F015FF204629463246C9
:102200003B46FEF7D9FA04460D46E6E7AFF30080F9
:102210000000000080842E41E40A06001C0A002011
:102220001CA406000000F87F33A4060068140020F8
:102230003EC706007A8D06001EA3060000000000BF
:102240002DE9F04F2DED028B00230A22DDB006AF01
:10225000BB8687F83520552287F83630C7E90E232C
:102260009F482DF0BFFB80B99E48036803F0070329
:10227000022B03D99C4A032126F031FE07F5AE77E5
:10228000BD46BDEC028BBDE8F08F98482DF0AAFB4F
:1022900038B99448036803F00703022BEED9944A37
:1022A000E9E7944C20462DF09DFB38B98D48036832
:1022B00003F00703022BE1D98F4ADCE7D4F804804E
:1022C000A668D8F800302569DA010ED48B4940F2AF
:1022D000E9338B4A8B4827F0ACFE8B4827F0A9FEE8
:1022E00040F2E931864827F09DFE2B68182143F023
:1022F00080732B6020463368844A98470028D5D1E4
:102300008349844B4B604FF080738B60F369002BE3
:10231000CCD00122204698470028C7D1B669002EAC
:10232000C4D0D8F80030DB010CD4744940F28733B4
:10233000734A744827F07DFE734827F07AFE40F216
:102340008731CFE72B684FF0A07213F0807F14BF66
:102350004FF000734FF0806318212046B0470028EB
:10236000A4D16D4C20462DF03DFB38B95D48036883
:1023700003F00703022B81D9684A7CE7A3681D6834
:102380003DB9584803685D073FF478AF0121644ABE
:1023900072E702220C21204607F13803A8470028E3
:1023A000EFD14F4807F1340183681B689847054611
:1023B00048B14C4803685C073FF460AF2A4659496E
:1023C00026F092FD5AE70821222007F1580209F071
:1023D00087F9002855D04348036813F0060F03D04F
:1023E0000221514A26F07BFD08212A2007F15802DC
:1023F00009F076F900284AD03A48036813F0060F2E
:1024000003D00221494A26F06AFD0021344826F013
:1024100070FD024630B133480368590702D0444981
:1024200026F062FD4348012126F088FD102012F0BD
:10243000C9FB08B1404B43600024404B04738360E8
:1024400012F0AAFC9FED247B87ED0A7BB0EE478A51
:10245000F0EE678A87ED087B5BEC17AB4FF0FF323D
:102460004FF0FF33364807F1480121F067FB024681
:1024700098B11C4803685B07F0D0324926F034FD60
:10248000ECE7314BD7E91601C3E90001ACE72E4B6D
:10249000D7E91601C3E90201B7E797F84830062BE0
:1024A00000F29A82DFE813F00700F601A80083012A
:1024B00083028D029302254826F013FD07F148039D
:1024C00000284ED09A68002A42D10FCB04F000F9C0
:1024D000C4E700BFAFF30080000000000000F87FF9
:1024E000300A06001C0A00205FA40600E40A060069
:1024F00074A406002C0906000DA50600BDA4060064
:102500008CA406007A8D0600FBA4060011000100D1
:1025100080FF002069640300D00A060033A506008E
:102520004CA5060068A506007DA50600A3A506002B
:10253000C7A506007CFF002074630700A0650700A4
:10254000CC0E00207D9D06006814002058FF00205E
:10255000AD4803685E0781D0AC4A012126F0BFFC7C
:102560007CE7AB4A9D68D2E9028942464B46404629
:102570004946FEF7BBFB07F13302B0B949EC108BBB
:102580002946A44804F026F8024688B19E4803680C
:10259000590702D0A04926F0A7FC3B6D1BBB0025C4
:1025A0004FF0000ADFF8B8B258E79FED8F0BE7E76E
:1025B0009A4C396D9A4826F0C1FC238813B13A6DC4
:1025C0009A4201DD0024E8E7964A12889A42F9D03F
:1025D0000C2012F0F7FA08B1934B43602388038173
:1025E00012F0DAFBEEE797F83330002BD7D18F4BA0
:1025F000187804F073F9D2E78C4E3078FFF7ACFD11
:10260000337887ED080B002B53D107F140021E21D0
:10261000874826F061FC024600B37B4803685B07ED
:1026200002D0844926F060FC9FED718B824E3A21E6
:10263000B3683046DB6898470246002844D107F16A
:1026400040020C21304626F047FC0246002864D0A8
:102650006D48036859073ED076493AE0786CFEF73A
:1026600041F865A3D3E90023FEF7D0F98046386C22
:102670008946FEF737F802460B4640464946FDF7C5
:10268000E5FE3B6A8046BB607B6A894623F00043D7
:10269000FB60D7E902015AA3D3E90023FEF78CF8C7
:1026A00002460B4640464946FDF7D0FE41EC180B6A
:1026B000BCE7624940F22713614A624827F0B9FC3F
:1026C00040F227115E480EE64F4803685E0702D0CD
:1026D0005D4926F009FC9FED467B87ED0A7B3020A3
:1026E00012F070FA064618B1584B43602023C360BD
:1026F000574B97ED080BB36006F1100006F118096F
:10270000FFF7DAFCF8B153494FF40D734C4A4D48CA
:1027100027F08FFC4FF40D71D4E7786CFDF7E2FFE2
:1027200035A3D3E90023FEF771F98046386C89465A
:10273000FDF7D8FF02460B4640464946FDF786FEA8
:10274000C7E90A01CBE7B0EE480AF0EE680A48464E
:1027500006F12008FFF7B0FC48B13E4940F23623AD
:10276000374A384827F065FC40F23621AAE7D7E916
:102770000A2310461946FEF7B9FA38B14FF0004364
:10278000C6E90833304612F007FB67E697ED0A0BFF
:102790004046FFF791FC0028F4D02E4940F23D233B
:1027A000274A284827F045FC40F23D218AE797ED6B
:1027B0000A7B8DED028B8DED047B97ED087B07F195
:1027C00058088DED007B4FF480714046224A24F07A
:1027D000F9FDB0F5807F0C48036843DD5A073FF4EC
:1027E0003DAE1E4AB9E600BF000000000000F03F09
:1027F000000000000000F87F0000000080842E41EF
:10280000333333333333D33F1C0A0020D7A50600BC
:1028100068140020300A0600C7A50600188F0120A2
:1028200078FF00201A8F0120A4630700ADA30120C8
:10283000E40A060033A40600D00A06003EC70600DC
:102840001EA306007A8D06001CA40600346407004F
:10285000EFA50600478E060001A606001CA606008E
:102860000000F87F03F00703022B7FF6F7AD6E46FA
:1028700088B006AA5D4BC2E905384FF40073938314
:102880005B4B42F8103F00234FF4E6510CF042FC42
:10289000B546E3E5574826F024FBFDF723FF002269
:1028A000554BFEF7B3F8554B804618788946FFF72D
:1028B00053FC404653EC102B4946FDF7C5FD21F073
:1028C0000043FB614E4BB86193ED087B804689461F
:1028D000D7E9060187ED047B53EC172BFEF7FCF9D3
:1028E00000283FD052465B4650465946FEF7FEF957
:1028F000044618BBD7E906012BF00043C7F800A037
:102900007B60D7E90023FEF7E7F9B8B121463D48DF
:102910006E4226F013FBDFF814A13B48DAF80040C2
:102920003444214626F0E5FA024698B93546374B3D
:10293000CAF800405C60C246CB468FE5D7E9042365
:1029400040464946FEF762F841EC100B26F03AFA91
:102950000646E0E72E4803685B07ECD02D4926F0D9
:10296000C3FAE8E72C4ED6E9022310461946FEF7D3
:10297000BDF900283FF472AD002C3FF46FAD274B3A
:102980001B683B61002B3FF469AD2046FDF79AFEC2
:102990003B69804618468946FDF794FE02460B4681
:1029A00040464946FEF732F8C6E9020156E51A4BA1
:1029B000D7E91401C3E90001104B187803F08EFF2A
:1029C0004CE5154BD7E91401C3E90201F4E797F888
:1029D00050000A4B1870F1E7114940F28723114A61
:1029E000114827F026FB40F287216BE675F80600B8
:1029F0000300000178FF002000408F40ADA30120BC
:102A0000000000205CFF0020300A060068FF002064
:102A10001C0A0020C7A506006814002060FF0020E3
:102A20003EC706001EA306007A8D060064FF002044
:102A30002DE9F04F2DED028B054695B0B4488A463E
:102A4000174626F082FA50B9B24A0121284628F0EA
:102A5000A1FC002015B0BDEC028BBDE8F08FAE48A4
:102A600026F073FA044608B1AC4AEEE7012004F000
:102A700063FA0AF18043013BA94957F82300FFF7A5
:102A8000B1FA68B901230AF1FF3A0493BAF1040FCD
:102A900008D8082128463B68A24A28F07BFCD8E7E2
:102AA0000494F3E77B681A78222A08D19E4A012110
:102AB000284628F06FFC012004F03EFAC9E7002206
:102AC0001846114624F008FE984C00280346A061E1
:102AD00001DA974AEBE7BB681A78222A01D1954AB6
:102AE000E5E700221846114624F0F6FD00280346CB
:102AF000E06101DA904ADAE70021F86800F0C8FFE7
:102B000059EC108B84ED040B00220023404649460B
:102B1000FEF7CEF838B101212846CDE90089874A71
:102B200028F038FCC7E7049BCBB108212846844A2B
:102B300028F030FCD4E904230821CDE900232846FD
:102B4000804A28F027FC08212846A3697E4A28F0FD
:102B500021FC08212846E3697C4A28F01BFC042656
:102B60009FED678BDFF814C208ACBCE80F000FC400
:102B7000BCE80F000FC49CE80F0084E80F00382069
:102B80002DF06DF9044628B901212846704A28F035
:102B900001FC90E76F4957F8260024F005FC4FF040
:102BA000000BDFF8B0910DF1200818B1BBF1060F52
:102BB00040F0E6809DED080B26F004F99DED0A0B30
:102BC000A061059026F0FEF8DDE90C89DDE910230F
:102BD0009DED0E7B43EC102B84ED047BC4E9028950
:102BE000E0618DED027B8346CDE9062326F0EAF80D
:102BF000DDE90623206219461046FEF777F8DDE985
:102C00001223003818BF0120C4E90A2384F82400E5
:102C10000598FDF757FD3CA3D3E90023FDF7F6FE29
:102C200042464B46FDF7C8FD804658468946FDF7AB
:102C300049FD35A3D3E90023FDF7E8FEDDE90223D2
:102C4000FDF7BAFD0B46024649464046FDF7FEFB3E
:102C5000049BC4E90C01002B43D0082128463E4ABE
:102C6000F31E28F097FB08212846A3693B4A28F069
:102C700091FB08212846E369394A28F08BFBD4E907
:102C800002230821CDE900232846364A28F082FB9A
:102C9000D4E904230821CDE900232846324A28F04C
:102CA00079FB94F82430002B76D1206AFDF70AFDD9
:102CB000CDE900012D4A0821284628F06BFBD4E914
:102CC0000A230821CDE900232846294A28F062FB7F
:102CD000D4E90C230821CDE900232846254A28F011
:102CE00059FBD4E9028942464B4640464946FDF726
:102CF000FDFF002853D0204AF31ED8E6AFF3008032
:102D0000000000000000F87F000000000020AC4040
:102D10008CFF002093A8060090FF00207AA90600EF
:102D200095A906009DA9060008AA060068160020BD
:102D300030AA06005AAA060083AA0600AEAA060018
:102D4000D4AA0600DEAA0600EFAA06000BAB060016
:102D500028AB060035DA060057AB060068AB060064
:102D60007AAB06008CAB06009DAB0600AEAB06004E
:102D7000BFAB0600CFAB0600E8AB0600B011060003
:102D8000002100F085FE4946A8EC020B00200BF163
:102D9000010B24F009FB08E751EC180B88E700222F
:102DA000002340464946FDF779FF0028A3D1D4E926
:102DB000048942464B4640464946FDF797FF0028A6
:102DC00099D10022002340464946FDF767FF0028BD
:102DD00091D1D4E90A8942464B4640464946FDF71F
:102DE00085FF38B90022002340464946FDF756FFCB
:102DF000002880D100232360084B1A6C52B9C3E924
:102E00000F44013656457FF4ADAE012208211A70F9
:102E1000034A1BE614601C64F3E700BF6816002039
:102E200007AC0600000000002DE9F04F2DED048BEB
:102E300001208BB004F080F801228D4BD3E8EF1F06
:102E4000C3E8E02F0028F9D19FED878BB0EE489AB8
:102E5000F0EE689A5BEC18AB55EC184B854F4FF0D1
:102E6000FF334FF0FF32844802A920F067FE03468B
:102E700040B13A685107F2D0012138467F4A27F025
:102E8000FCFCECE79DF80830052B00F2DF80DFE862
:102E900013F006004700520065005D00C800784E40
:102EA0003378002B30D00121764BD3E8EF2FC3E8E5
:102EB000E01F0028F9D1002A2FD10C2011F082FE4A
:102EC00008B1714B43600023037211F065FF04F0F9
:102ED00075FA0346D0B903F0E5FEF269C2606B4AA9
:102EE000826011F059FF03F0DDFEB269C260684AEA
:102EF000826011F051FF03F0D5FEB269C260654AED
:102F0000826011F049FFAAE76FF015035948026883
:102F10005207A4D0604A0121B1E74FF0FF33F5E733
:102F200004F030F80346002899D05248026856074A
:102F300095D05A4AEFE704F041FA034600288ED0B4
:102F40004C48026851078AD0554AE4E74D4825F0BD
:102F5000FCFF002883D09DED049B80E7494825F0C5
:102F6000F4FF00283FF47BAFDDE906ABDDE9044563
:102F70005B46002B06DB0BF10043CDF800A001936C
:102F8000DDE900AB22462B46204629469DED088B05
:102F9000FDF7ACFE00287FF462AF394E2046D6E93B
:102FA00004232946FDF77AFE30B3324EB0EE483A9C
:102FB000F0EE683AB0EE492AF0EE692A4BEC11AB1C
:102FC00045EC104B04F036F8336803F00703022B8E
:102FD00004D903213046334A27F046FC03F0D2FFE0
:102FE000034600283FF43BAF326852073FF437AF47
:102FF00001212A4A1F4842E7D6E9028942464B4648
:1030000040464946FDF772FE40B922462B464046EF
:103010004946FDF761FE00283FF421AFC6E90245AD
:103020001DE7184825F091FF00283FF418AFB0EED7
:10303000483AF0EE683AB0EE492AF0EE692A4BECD5
:1030400011AB45EC104B03F0F5FF08E716491748A4
:1030500040F2AF13164A26F0ECFF40F2AF111448CD
:1030600026F0E0FFAFF30080000000000000F87FD2
:103070008CFF0020180A0020000F00207D9D060014
:103080006816002090FF0020046407005CA9060079
:10309000FEA3060048A9060043AD060056AD060093
:1030A00068AD06007CAD06003EC706007A8D0600BE
:1030B00061A80600000000002DE9F04F2DED0E8BF9
:1030C0009FEDB1EB9FEDB2DB9FEDB3BBF3B00EAF65
:1030D0004FF0FF334FF0FF32B94807F1140120F0F1
:1030E0002DFD034640B1B74802685207F0D0B64AFA
:1030F000012127F0C2FBEBE73B7D63B1012B00F020
:103100007B81B2494FF49E73B14AB24826F091FFD9
:103110004FF49E71C3E149F62033A7F8483007F118
:103120001803FB6449F62233A7F8603007F128033F
:103130007B669BA3D3E90023C7E91C2349F624330C
:103140000022A7F87830A44B282007F1200AC7E90D
:10315000202395A3D3E9002387ED14EB87ED16DB3D
:1031600087ED1ABBC7E92223C7F87CA011F02AFD1E
:10317000044618B1994B43601823C36007F10E0051
:1031800004F0BEFE054650B9BB7BFBB18D48036819
:1031900013F0060F03D00221914A27F065FB914BF3
:1031A0000022A3604FF000432046C4E90433C4E981
:1031B0000622C4E9083311F0EFFD002D88D08148C4
:1031C00003685B0784D0884A2B4691E707F1480BD8
:1031D0004FF0020891229BF8003007F110063E6381
:1031E000C7F8348087F838803270737074230122F6
:1031F0007E4807F1300125F0C6FEA0BB4FF4C8732E
:10320000C7E90C68338087F8388074230122774837
:1032100007F1300125F0B7FE28BB87F830003520D4
:10322000002122F0BFFD07F1300004F069FED0B9A3
:1032300097F83030CBB99BF801303E6333700123EF
:1032400007F10F060022C7E90F637B63072387F8A6
:10325000382087F8443074230222644807F1300193
:1032600025F091FE50B1054699E70420002122F097
:1032700099FD97F83030002BD5D1DCE73078FDF799
:1032800021FADBE90223FDF797FADBE90423FDF7D6
:10329000DDF8DBF8043000227B60554B8046894620
:1032A000FDF7FCFC00286BD141A3D3E90023404685
:1032B0004946FDF711FD002862D149464046FDF719
:1032C0002BFD3860FDF70EFA02460B464046494694
:1032D000FDF7BAF838A3D3E90023FDF76DFA002211
:1032E000434B80468946FDF7D9FC002848D130A3DE
:1032F000D3E9002340464946FDF7EEFC0646002888
:103300003ED1D7E9002340461A604946FDF704FD47
:1033100001357B68032D58600BF1180B7FF458AF13
:10332000DAF80400FDF7DEF923A3D3E90023FDF763
:103330006DFB8046DAF800008946FDF7D3F90246B6
:103340000B4640464946FDF781F82A4B07F1180223
:10335000C3E90001234BA36004F1100392E80300CA
:1033600007F1280283E8030092E8030004F1200338
:10337000C4E9066683E80300204611F00DFDA7E6C8
:103380006FF021006FE700BF9A9999999999893F49
:103390000000000000000000F6285C8FC2F500C0AD
:1033A0000000000000587840CDCCCCCCCCCCFC3F09
:1033B0000000C0FFFFFFDF410000000080842E41BD
:1033C000980E00202C0A00207D9D06003EC70600B6
:1033D000FEB206007A8D06000000783F34640700D4
:1033E00034B3060040B306004FB30600CC09060014
:1033F0000000E0C1280000204FF0FF324FF0FF3303
:10340000484820F0E9FC00287FF462AE464B93ED7B
:10341000028BD3E90045D3E908ABD3E90A8993EDE0
:1034200004CB93ED069B3F4820F046FC22462B46FA
:1034300020462946FDF75AFC00287FF449AE3B4B55
:10344000524693ED00AB50465B465946FDF74EFCA5
:1034500007F1900630B342464B4640464946FDF7D9
:1034600045FCF8B18DED06AB8DED049B8DED028B27
:103470004FF480713046CDE900452D4A23F0A2FF7C
:103480000138FE2833D92B494FF498732A4A2B4828
:1034900026F0CFFD2A4826F0CCFD4FF4987126483F
:1034A00026F0C0FD8DED0CCB8DED06AB8DED049BB4
:1034B0008DED028B4FF48071CDE90A89CDE908AB1F
:1034C000CDE900451F4A07F1900023F07BFF01384A
:1034D000FE280CD917494FF49B73174A174826F05A
:1034E000A8FD174826F0A5FD4FF49B71D7E71648B5
:1034F000036803F00703022B7FF6EAAD6C4688B041
:103500000EAA124BC2E905364FF400739383104B99
:1035100042F8103F00234FF4E6510BF0FBFDA546A7
:10352000D6E500BF0C0E002030000020280000204F
:103530006EB306008DB30600FEB206007A8D06005B
:10354000AFB30600BEB306002C0A002075F80600D3
:103550000300000100000000B42310B588B08DF80E
:103560000B3003230DF10B02009304467421224813
:1035700003AB25F0D3FD024630B12049204605F0CB
:10358000DDF8002008B010BDBDF80D309DF80C002E
:103590005BBA9BB243EA0040FDF794F80022184B57
:1035A000FDF70AF912A3D3E90023FDF705F941EC71
:1035B000100B25F09BFB0EA3D3E9002351EC100B5D
:1035C000FDF724FACDE9000110210E4A0DEB0100B0
:1035D00023F0F8FE1028024601DD0B49CEE7204615
:1035E0000A4A04A905F09EF8CBE700BFAFF30080BC
:1035F0000000000080842E41CC0906007AD6060027
:103600000000903FEA9A06009DD6060013D70600F8
:103610002DE9F04101F18045013D002188B00446CB
:1036200052F82500904600F033FA57EC106B324602
:103630003B4630463946FDF759FB48B158F825203E
:103640003549204605F07AF8002008B0BDE8F08141
:103650000022324B30463946FDF7AEF841EC100BF4
:1036600025F044FB51EC100BFDF77EFB6FF07F4320
:10367000984228BF1846012838BF0120030C8DF856
:10368000093043BAADF80A30B4238DF8083002ABE4
:1036900003930423049302238DF81430012274232E
:1036A0001F4803A925F033FD024608B11D49C8E7AC
:1036B000BDF80A309DF809005BBA9BB243EA0040AE
:1036C000FDF700F80022184BFDF776F810A3D3E9B8
:1036D0000023FDF771F841EC100B25F007FB0CA35C
:1036E000D3E9002351EC100BFDF790F90F4ACDE917
:1036F0000001122103A823F065FE1228024601DD15
:103700000B499EE7204603A905F004F89CE700BF9B
:103710000000000080842E41D4D6060000005040F6
:10372000CC090600EED606000000903F10D7060038
:103730009DD60600000000002DE9F041C768044650
:1037400017F00705164609D0274928487C23284A40
:1037500026F06FFC7C21264826F064FCD0F8088017
:10376000FF0840462CF010FCA0B32B462A46A0EBE5
:103770000800834224DBBA422CD2103454F8327051
:1037800004EBC203B7F1004F586802D1B0F1004F0B
:103790001DD0FCF7A7FF12A3D3E90023FDF736F9EC
:1037A000044638460D46FCF79DFF02460B46204670
:1037B0002946FCF74BFEC6E900010020BDE8F08178
:1037C00018F8031001332C2908BF0132D1E700207B
:1037D0000849F0E76FF00100F0E700BFAFF30080A9
:1037E0000000000080842E41509C06007A8D060067
:1037F0001E9C06000000F87F2DE9F04706460F46A4
:1038000090468AB02CF030FA4FF47A73A0FB03454F
:1038100003FB0155E40B012F44EA45444FEAD5353B
:1038200008D108213046CDE90045294A27F0B2FDEC
:10383000002013E0D8F8047026483946FEF7D2FB82
:1038400078B139462448FEF7CDFB50B130463B46AF
:103850000121224A27F09EFD6FF004000AB0BDE866
:10386000F087204618A3D3E900232946FDF7FAFB89
:1038700005460C4610461946194A0023FDF7F2FB8F
:1038800080460F46104619464EF660220023FDF78B
:10389000E9FB82468946104619464FF47A720023A6
:1038A000FDF7E0FBCDE904A9CDE90601CDE9082348
:1038B00008213046CDE90287CDE90054094A27F0B6
:1038C00069FDB5E7AFF30080005C2605000000004D
:1038D00088F4060099F406009CF40600A5F406009E
:1038E00080EE3600BCF406002DE9F04F87B00546A7
:1038F00017461E460391836804AA5B689847002810
:1039000031DBDDE9044AA7FB04B307FB0A371AA33E
:10391000D3E900234FF0FF3958463946FDF7F2FB53
:10392000DFF85C80D94578EB070302901ED312A321
:10393000D3E90023A6FB04B406FB0A4458462146FB
:10394000FDF7E0FBD94578EB040403460ED302995A
:10395000AA6899420DD3BDF840102846009114681A
:10396000DDE90221A04707B0BDE8F08F6FF08500C8
:10397000F9E76FF01500F6E700CA9A3B0000000077
:10398000FFC99A3B000000002DE9F04F3A4B85B08B
:10399000D3F8042392070BD5D3F8042142B10022B7
:1039A000C3F80421354AD3F8043113680133136096
:1039B000334D0024A8464FF480362F4FD7F80433F8
:1039C00006FA04F919EA030F2DD00123A340DB43C3
:1039D0002C49D1E8EF2F02EA0300C1E8EC0FBCF15B
:1039E000000FF6D122FA04F3DB0703D4264B53F879
:1039F0002430C3B1204629F0CBFC19F0D5FE4FF09E
:103A00002002EFF3118382F31288BFF36F8F08EB6C
:103A1000041CDCE902AB504571EB0B010AD283F3C5
:103A20001188BFF36F8F103514B105B0BDE8F08F6A
:103A30000124C3E70020D5E900129FED0D7B28602B
:103A40000D4803938CED027B0292C0F84893204608
:103A500029F09EFC039B83F31188BFF36F8F00292D
:103A6000E1D0029A5B46009252468847DBE700BFEE
:103A7000FFFFFFFFFFFFFFFF00500150348B0120CD
:103A800098270020288B01204051015000000000A1
:103A90002DE9F84F8146884600232DED028B19F859
:103AA00003605A1C202E00F07A81A6F10901042936
:103AB00040F275812B2E154632D02D2E35D00424A0
:103AC00046F02003692B4DD06E2B5DD000224FF0C5
:103AD0000A0A944613461046114614F4006E59D053
:103AE00046F02007A7F1610BBBF1050F52D8573FF5
:103AF000FFB2BA4553DC46F0200604F08007782E6A
:103B000040F0DC80002F00F0D98050EA010A40F03C
:103B1000D58044F4006E4FF0100A1FFA8EFE4DE07F
:103B2000042419F802609D1CCAE74424F9E719F837
:103B30000520681C42F020028A4229D0A24A934202
:103B400017D000259FED9A8BB8F1000F02D04D449D
:103B5000C8F80050B0EE480AF0EE680ABDEC028BDF
:103B6000BDE8F88F9FED948B984B13F8011B00294B
:103B7000DDD16306E8D518EE901A18EE102A01F18F
:103B8000004343EC182BDFE79FED8D8B904BECE768
:103B90000546EAE7A6F13007FFB257452DDA44F0B3
:103BA000800E14F4807F04F400761FFA8EFE0AD093
:103BB000002F18BF43F0010306B9013219F8056060
:103BC0007446013589E706B1013AAAFB00060AFBF3
:103BD0000161381841F1000150EA0106EED0BAF156
:103BE0000A0F0CF1010C0CBF10260F26B445E5DDC1
:103BF00044F4C07E1FFA8EFEE0E7FE2F7FF47BAF19
:103C0000A70558D514F080069BD050EA010605F1AF
:103C1000FF3500F0C180260540F1A9803632B1F5AC
:103C2000800FC0F088806B4FB1F5000F80F0888066
:103C3000BA42C0F285800343084603F00306032E10
:103C400004D003F00606062E40F08380043341F1D1
:103C50000000B0F5000F7CD30132B2F5806F80F226
:103C6000988000234FF4801102F2FF3221F480117A
:103C70001E4641EA025747EC186BB0EE480AF0EED8
:103C8000680A25F079F80138022804D8524B22221C
:103C90002CF02EFD1A50B0EE480AF0EE680A25F01E
:103CA0006BF8013802283FF664AF4B4B22222CF010
:103CB0001FFD1A505DE744F4007E9BE71FFA87FA68
:103CC000002F6ED0BEF1000F0CBF65277027BE42DB
:103CD0009BD119F805606F1C2B2E04D02D2E24D1FA
:103CE00044F48064A4B219F80760A6F13007092FE4
:103CF0008BD8AF1C3D4640F2D34A00274FF00A0B49
:103D00005745DCBF303E0BFB076719F805600135EE
:103D1000A6F1300EBEF1090FF2D9660548BF7F4209
:103D2000260548BF92003A446FE7A6F1300EBEF177
:103D3000090FDFD969E7001802F1FF3249416EE748
:103D4000460800F00100013246EAC17649083043D6
:103D50006AE7B2F5806F1CDA9B08B0F5800F4FEA76
:103D6000900143EA8073BFF47FAF002280E70CEB41
:103D7000020313F5A27F09DDB3F59B7F09DA00F09A
:103D80002FF8B0EE408AF0EE608A84E79FED088B52
:103D900081E79FED098B7EE79FED058BE9E61346F2
:103DA0007DE69FED038B5546CEE600BFAFF3008066
:103DB0000000000000000000000000000000F07F94
:103DC000000000000000F87F7350070070500700EB
:103DD0006D50070002FCFFFF0C0000000000000017
:103DE0002DE9FF47804616460F46002900F0A280C5
:103DF000B1FA81F4341B002E04F10A04C0F2A2804F
:103E0000304624F08BFD0444304624F08DFDA4EBB5
:103E1000060905466946304624F0AEFDA9EB0503C8
:103E20006A4640467D3339462CF013F9A642824655
:103E30000D4600F38380B9F13F0F00F381804FF00E
:103E4000FF33A9F12000C9F1200103FA00F003FAC1
:103E500009F223FA01F103FA09F3024328EA030302
:103E60000A4327EA020213430CBF01200020002D61
:103E700000F08A80B5FA85F3E31A40F2FE7203F28D
:103E80003E43934200F38980002B23EAE376D4BFBC
:103E900001223246121BA2F23341A2F23447A2F2AF
:103EA0005344C1F1200C2AFA01F325FA04F4C7F1B6
:103EB000200E05FA0CFC25FA01F105FA0EFE43EA84
:103EC0000C03A2F2544CA2F2544223432AFA07F400
:103ED00025FA0CFC44EA0E0444EA0C04C7F1200C59
:103EE00014F0010F54D0A8B14FF0FF3000FA02F2E5
:103EF00000FA07F4144320FA0CF2B840144303F01C
:103F000001022AEA000A25EA04054AEA020A5AEAF4
:103F1000050A3DD0013341F10002C2F3130253EA16
:103F2000020138D0184642EA065141EC100B04B0A9
:103F3000BDE8F087B0FA80F420345BE7012096E713
:103F4000002094E7C6F10009484624F0EDFC241A4D
:103F5000484624F0E9FCA61B0546694648462E441F
:103F600024F07CFD6A46404606F17C0339462CF07D
:103F700070F882460D464046394624F0E5FC8145FE
:103F80008CBF0020012072E7BAFA8AF3203373E76E
:103F9000C1F31302C6E70136C4E79FED010BC6E784
:103FA000000000000000F07F08B524F0E5FE9FED62
:103FB000020B08BDAFF30080000000000000F87F96
:103FC00008B5104AD2F86C3223F00D03C2F86C32F7
:103FD00010F05CFF48B10C4803685B0703D0012177
:103FE0000A4A26F041FC002008BD102010F0EAFD2E
:103FF00008B1074B4360074B83600023037310F045
:10400000CBFEF0E700258450F80900201A8D060049
:1040100074630700886507000122014B1A7370471B
:10402000C0090520014B002019607047042D0020B5
:1040300001480BF071BB00BF1415060010B5064B0C
:104040000C4618680AF026FC2146BDE810400346DD
:104050000A220248184700BF042D0020141506004C
:1040600010B5134B42689A4218D1047AA4B9114A88
:10407000114B116899420FD102F580410B7B5BB166
:104080008B68C068B3F5804F0C7328BF4FF4804332
:104090000A49043200F0B0FA002010BD084909486E
:1040A0005823094A25F0C5FF5821074825F0BAFFD3
:1040B0002C630700C0C904205555AAAA498D0600E3
:1040C0003EC706007A8D0600568D060010B5064BD9
:1040D000064C1A68A24206D044F21002002118468B
:1040E0002CF029FA046010BDC0C904205555AAAAB5
:1040F000F8B5194B0C46194A1968914209D018496C
:104100006423184A184825F094FF6421154825F0C7
:1041100089FF03F580467568B5F5804F07D31349CD
:104120006523104A104825F084FF6521EEE7B4F5B9
:10413000804F0FD82A19B2F5804F28BF00252F1DB8
:1041400001462246D8192CF0CFF9B3682544234400
:104150007560B3602046F8BDC0C904205555AAAAB1
:10416000978D0600568D06007A8D0600C38D0600D9
:1041700008B5114B42689A4213D1037ACBB94FF478
:104180001A730E4A0E49C06800F036FA88B10D491C
:1041900040230D4A0D4825F04CFF40210A4825F0E8
:1041A00041FF0B494723084A084825F042FF4721B1
:1041B000F4E7002008BD00BF2C6307005C8E0600FA
:1041C0001A8E0600478E0600258E06007A8D0600A0
:1041D0003EC706002DE9F04F8D4C8BB002AF4FF07B
:1041E000FF324FF0FF338B4820F016F80028F6D14D
:1041F000894B1D68002D00F00581B5F5C02F00F238
:104200000481F86107F11C010E200BF05FFD0646EA
:1042100070B323685A0705D0012103467F4A204620
:1042200026F02BFBB2467E4812F000FEF86908B17A
:1042300026F019FC2268530705D001215346204679
:10424000784A26F01AFB0125774BD3E8EF2FC3E815
:10425000E15F0029F9D1102010F0B4FC08B1734BD4
:104260004360734B05721B68C36010F095FDB6E7A1
:10427000A846AB46814678614FF480526D49684844
:1042800012F0F2FD051E7CDDAB4509DA6A49BD235B
:104290006A4A6B4825F0CDFEBD21684825F0C2FE74
:1042A000C9F30B033BB16749BE23644A644825F058
:1042B000C0FEBE21F1E7B5F5805F06DA5D4BFF2158
:1042C000C5F5805258192CF036F95A492A467869B2
:1042D00007F014FE4946FB6978613B6109F580539C
:1042E000FB60EA46ADF5007D02AA4FF40073386921
:1042F000C7E9012126F0B8FBD7E90121C8B123683D
:104300005B0704D0012120464F4A26F0ADFA4FF456
:104310008052D5464946F86926F0D0FB8246B8B1AE
:10432000226856073FF47FAF0346484A01213848C8
:104330001FE0131F02F5FE7253F8040F0130E6D19F
:104340009A42F9D1FB6801F500719942D546C8D16E
:104350004FF480534946374AF86926F09AFB824663
:1043600050B1226855073FF45EAF0346384A012139
:10437000204626F082FA56E7BBEB050BA9447FF4F2
:104380007BAF0025DFF8AC90B8F5805FC34628BF4F
:104390004FF4805B4A465B463146F86926F064FB81
:1043A000824630B1226850073FF43DAF294A534658
:1043B000DDE728465A46494607F0A0FDB8EB0B0852
:1043C00005465E44E0D17B6998420DD023685907C9
:1043D00007D07B69012100931F4A0346204626F03F
:1043E00056FA6FF0150A1EE7504628F093FB8246F6
:1043F00030B1226852073FF416AF184A034695E7DA
:1044000009F056FE6FF0150A14E76FF00B0A11E77A
:10441000CC09002018100020102D0020C5900600A7
:10442000142D0020BF910600082D00202C630700EA
:104430000C2D002022910120FD900600D89006004E
:104440007A8D06001E9106003A9106004C910600F6
:10445000609106007491060087910600A7910600FE
:104460000022F0B5ADF5077D0146064602A8CDE96C
:10447000022212F053FD0346A8B9254D0DF2111783
:1044800044A902A812F0B2FD0446D0B12148036845
:104490005B0704D0012123461F4A26F0EEF902A84B
:1044A00012F01EFE09E01B480268520703D00121EA
:1044B0001A4A26F0E2F96FF0010420460DF5077D57
:1044C000F0BD9DF8113103B39DF81031002BD7D109
:1044D00029463846FDF786FD0028D1D1859A104B34
:1044E000104D1A60C5E90044AC603346FF210E4A06
:1044F000009704A822F066FFFF2806D8012228466C
:1045000004A912F037FC0446C9E76FF00104C6E7BE
:10451000ED910600CC090020DE910600CF91060047
:10452000102D0020142D0020FC91060030B5254AE6
:1045300043680446934289B018D10021224BD3E846
:10454000EF2FC3E8E01F0028F9D16ABB257A012DBF
:104550002AD1E068FFF784FF30BBE2681B4B1A608A
:104560001B481FF015FE284609B030BD194A93427A
:104570001CD18268184B9A4216D1037BA3B9002044
:1045800000210E22CDE90601CDE90232CDE900334A
:1045900004934FF40062114B114912481FF034F993
:1045A000114910481EF036FF0020DDE70F49104882
:1045B00040F24D130F4A25F03CFD40F24D110D48DD
:1045C00025F030FD2C630700082D00200C2D002065
:1045D000181000207463070088650700D5410300A8
:1045E0000026042050120020029206003EC706005A
:1045F0007A8D0600D890060030B5A7B00091154618
:104600001C4680210346144A06A822F0DBFE01382E
:104610007F2803D96FF00B0027B030BD0023132291
:1046200006A903A8CDE90333059312F0A3FB0028E4
:10463000F2D10146022203A812F052FC0028EBD16D
:104640002246294603A812F02DFCA042E2D103A87D
:1046500012F0ECFBE0E700BFFC91060008B5082172
:10466000024B034A26F096FE002008BD1193060077
:104670002293060008B5124B42689A4216D182680E
:10468000104B9A4210D1037B73B928F04BFA58B9FA
:1046900028F064FA034638B10B480268520703D089
:1046A00001210A4A26F0E9F8002008BD0849094816
:1046B0002923094A25F0BDFC2921074825F0B2FC31
:1046C0007463070088650700BC0900203293060068
:1046D0003EC706007A8D0600569306002DE970430A
:1046E00055EC104B064622462B4620462946FCF741
:1046F000FDFAC0B925F000494FF0FF322046494687
:104700000C4BFCF7F3FA38B94FF0FF32204649461C
:10471000084BFCF7CDFA30B145EC104B3046BDE804
:104720007043FDF779BC4FF00043C6E90033002029
:10473000BDE87083FFFFEF7F10B50B4C236893B18A
:104740000A48036813F0060F03D00221084A26F036
:104750008BF80121206826F03FFEBDE810400021C3
:10476000044824F0B1BB10BD1CFD0020200A00202D
:104770008F930600202D002010B504460021054827
:1047800024F0A2FB20460821034A26F003FE002065
:1047900010BD00BF282D0020A593060007B5064BCD
:1047A00008211B68054A0093054B1B6826F0F2FDA3
:1047B000002003B05DF804FB9C080020BF930600B6
:1047C000A008002030B5104C8BB0237C0546089320
:1047D000E068FBF799FFCDE90601A068FBF794FFBD
:1047E000CDE904016068FBF78FFFCDE90201206885
:1047F000FBF78AFF054ACDE900012846082126F08B
:10480000C9FD00200BB030BD3C2D0020D493060024
:104810000022054B054883F8C12083F8832183F8E3
:1048200045220DF059BD00BF66A101200B94060082
:104830002DE9F043A3B00446FFF7EAFF054648B16F
:10484000034601212046354A26F0A4FD002023B06E
:10485000BDE8F083324E96F8E03A93B10821204645
:10486000304A26F097FD01238021A6F5805202A848
:1048700007F022F8002839D0012120462A4A26F0E4
:1048800089FD08212046294A26F084FD0027284E6C
:10489000DFF8AC80DFF8909001233246802102A837
:1048A00007F00AF858B34A460121204626F072FD67
:1048B00006F5D3560FB3082120461E4A26F06AFD9E
:1048C0001D4E1E4FDFF87C8096F8C130F3B106F123
:1048D0004103009342462B460821204626F05AFD0C
:1048E0000135032D06F1C206EED1AFE708212046BF
:1048F000134A02AB26F04EFDC3E70127CCE7424640
:104900000821204602AB26F045FDD1E72B463A466A
:104910000821204626F03EFDE2E700BF1594060080
:1049200038F2002030940600519406007694060078
:104930005C1806009194060066A10120C39406004D
:1049400062030700B594060008B50122024907F08A
:10495000BFF8002008BD00BF38E200201846002341
:1049600070B5049C0E4621681546237249B90A4960
:104970000A48BD230A4A25F05CFBBD21084825F002
:1049800051FB6268B24205D1A8476368834204BF05
:1049900001232372002070BD049506007A8D060065
:1049A000D494060008B5084B93F8E02A2AB90321ED
:1049B000064A26F0EFFC002008BD0821044A03F552
:1049C000266326F0E7FCF6E738F20020249506007F
:1049D0003C95060070B502290646144615688AB053
:1049E00007D02B460821414A26F0D4FC00200AB00B
:1049F00070BD3F492846FDF7F5FA014640BB6068A7
:104A0000FFF746F851EC100BFCF7CEF9394B186064
:104A1000384C2046FDF77EF9237C0893E068FBF7CD
:104A200073FECDE90601A068FBF76EFECDE9040137
:104A30006068FBF769FECDE902012068FBF764FEC0
:104A40002D4ACDE900010821304626F0A3FCCDE730
:104A50002A492846FDF7C6FA014648B96068FFF7BB
:104A600017F851EC100BFCF79FF9224B5860CFE779
:104A700023492846FDF7B6FA014648B96068FFF7B2
:104A800007F851EC100BFCF78FF91A4B9860BFE751
:104A90001C492846FDF7A6FA014648B96068FEF7AA
:104AA000F7FF51EC100BFCF77FF9124BD860AFE722
:104AB00015492846FDF796FA014690B96068FEF759
:104AC000E7FF51EC100BFCF76FF907EE900AF5EEDB
:104AD000407AF1EE10FA14BF01220022054B1A743D
:104AE00096E72B4603213046084A7DE747950600A6
:104AF0001E1507003C2D0020CA95060047A206009F
:104B0000C3DE0600B3A1060094950600AC9506002E
:104B1000012937B504460BD1144B186AFBF7F4FD95
:104B2000CDE90001124A0821204626F033FC06E0B8
:104B3000022907D0136808210E4A26F02BFC00201A
:104B400003B030BD50680021FEF7A2FF51EC100BFE
:104B5000FCF72AF9054605480562FDF7F3F82846F3
:104B6000FBF7D2FD044ACDE90001DCE7502D00201F
:104B70002B9606000396060022960600012937B5FB
:104B800004460BD1144BD869FBF7BEFDCDE90001FB
:104B9000124A0821204626F0FDFB06E0022907D034
:104BA000136808210E4A26F0F5FB002003B030BD43
:104BB00050680021FEF76CFF51EC100BFCF7F4F885
:104BC00005460548C561FDF7BDF82846FBF79CFD85
:104BD000044ACDE90001DCE7502D00206496060070
:104BE000439606005B960600012937B504460BD1B3
:104BF000144B9869FBF788FDCDE90001124A0821A2
:104C0000204626F0C7FB06E0022907D013680821DA
:104C10000E4A26F0BFFB002003B030BD50680021D3
:104C2000FEF736FF51EC100BFCF7BEF805460548C1
:104C30008561FDF787F82846FBF766FD044ACDE954
:104C40000001DCE7502D00208F96060075960600C7
:104C500086960600012937B504460BD1144B5869D6
:104C6000FBF752FDCDE90001124A0821204626F04B
:104C700091FB06E0022907D0136808210E4A26F0AE
:104C800089FB002003B030BD50680021FEF700FF13
:104C900051EC100BFCF788F8054605484561FDF717
:104CA00051F82846FBF730FD044ACDE90001DCE766
:104CB000502D0020B396060099960600AA9606008D
:104CC000012937B504460BD1144B1869FBF71CFDBD
:104CD000CDE90001124A0821204626F05BFB06E0E0
:104CE000022907D0136808210E4A26F053FB002042
:104CF00003B030BD50680021FEF7CAFE51EC100B26
:104D0000FCF752F8054605480561FDF71BF82846F3
:104D1000FBF7FAFC044ACDE90001DCE7502D002046
:104D2000D7960600BD960600CE960600012937B537
:104D300004460BD1144BD868FBF7E6FCCDE9000123
:104D4000124A0821204626F025FB06E0022907D05A
:104D5000136808210E4A26F01DFB002003B030BD69
:104D600050680021FEF794FE51EC100BFCF71CF884
:104D700005460548C560FCF7E5FF2846FBF7C4FC7F
:104D8000044ACDE90001DCE7502D0020FB96060027
:104D9000E1960600F2960600012937B504460BD1CC
:104DA000144B9868FBF7B0FCCDE90001124A0821CA
:104DB000204626F0EFFA06E0022907D01368082102
:104DC0000E4A26F0E7FA002003B030BD50680021FB
:104DD000FEF75EFE51EC100BFBF7E6FF05460548BB
:104DE0008560FCF7AFFF2846FBF78EFC044ACDE94F
:104DF0000001DCE7502D00201F97060005970600F4
:104E000016970600012937B504460BD1144B586894
:104E1000FBF77AFCCDE90001124A0821204626F072
:104E2000B9FA06E0022907D0136808210E4A26F0D5
:104E3000B1FA002003B030BD50680021FEF728FE13
:104E400051EC100BFBF7B0FF054605484560FCF739
:104E500079FF2846FBF758FC044ACDE90001DCE75E
:104E6000502D00204297060029970600399706002A
:104E7000012937B504460BD1144B1868FBF744FCE5
:104E8000CDE90001124A0821204626F083FA06E007
:104E9000022907D0136808210E4A26F07BFA002069
:104EA00003B030BD50680021FEF7F2FD51EC100B4D
:104EB000FBF77AFF054605480560FCF743FF2846E7
:104EC000FBF722FC044ACDE90001DCE7502D00206D
:104ED000649706004B9706005B970600F8B5002321
:104EE00001280C46C1E902330B604B600B7415D8E6
:104EF0004FF4D3521F4D204B2E4602FB003303F1DB
:104F000040071A4603CABA4228606960134605F191
:104F10000805F6D12660194BE360F8BD0428FCD8DB
:104F20001749023891F8832191F8C13002B1013359
:104F300091F8452202B101339842EEDA002215467B
:104F40000F4E96F8C17067B1904209D1C220094B4B
:104F500000FB0511412218462BF0C6FA2060DAE763
:104F600001320135032DD8D0934206F1C206E8DCA8
:104F7000D3E700BF22A101207C320600415103008B
:104F800066A1012037B504460121154823F09CFF96
:104F9000054630B12046134A26F0FCF9002003B044
:104FA00030BD48F2040201460F482BF0C4FA2946EE
:104FB000204626F011FA0D4B082120460C4A1C60B1
:104FC00026F0E8F94FF0FF324FF0FF330948CDE902
:104FD00000234FF4A022002321F098FBDEE700BF5E
:104FE000202D00206D970600D44700201CFD0020D6
:104FF000B4970600300B002010B5002104460C4881
:1050000023F062FF30B9012120460A4A26F0C2F996
:10501000002010BD08482AF07AFE20460821074AE1
:1050200026F0B8F90121204626F0D6F9F0E700BFB6
:10503000202D0020DC970600300B0020FD97060095
:105040000F4A08B58021012302F5D35006F034FC45
:1050500060B10C4803685B0703D001210A4A25F0C0
:1050600003FC8022002109482BF065FA0122084B3D
:10507000002183F8E02A0748BDE8084023F024BF58
:1050800038E20020200A00202798060098FC002023
:1050900038F20020282D002030B5041E0D46A7B0A0
:1050A00002DB21B1012918D06FF0150013E0012CAB
:1050B000FADC4FF4D3521C491C4802FB04112BF0BC
:1050C00013FAFFF7BDFF0822194801A98DF8045013
:1050D00002940DF0C7F827B030BD022CE4DCC222E8
:1050E000144B02FB043393F8C130002BDCD0234671
:1050F0008021114A06A822F065F90C4B0F49039351
:105100004FF4D3530493002303AA06A88DF8143058
:105110000DF008F90028DED19DF81430002BD0D115
:105120006FF00400D7E700BF5C18060038E20020EB
:105130005D98060066A10120449806005D490300C1
:10514000F8B505461746FFF763FB044618B103465A
:105150001A4A012114E01A4E3F6896F8C1309BB1FB
:1051600039463046FCF73EFF70B901212046FFF773
:1051700093FF034608B1134AEBE70821124B134A89
:10518000284626F007F913E00134032C06F1C20685
:10519000E3D139460E48FCF725FF60B139460D488A
:1051A000FCF720FF30B1214628460B4A26F0F2F8E2
:1051B0000020F8BD01200021D9E700BF15940600AA
:1051C00066A101207598060098FC00209B980600B7
:1051D0007C320600DC4C0600A89806002DE9F04F52
:1051E00004460D46B5B000216D48164623F06CFE0E
:1051F00028B901216B4A204626F0CCF816E0022D92
:1052000006D008213368684A204626F0C3F80DE02E
:1052100070680A4622F060FA022806460AD9034658
:1052200001212046614A009526F0B4F8002035B0EF
:10523000BDE8F08F5E482AF06AFD0121204626F085
:10524000CBF85C490A6812B95B4A0321D3E7012312
:105250005A48A1F5004106F0CBFA584F034630B149
:10526000574A0321204626F095F8564AEDE70146B5
:10527000554823F029FE33468021544A814614A81C
:1052800022F0A0F8FFF7C4FA054610B10346504AD1
:105290005CE007F5805393F8203A002B53D040226E
:1052A00007F5D15104A82AF014FEDFF848B107F53C
:1052B000D15A002347499E420BD091F8C12042B1F8
:1052C00004A8CDE90213FCF78DFEDDE90213804648
:1052D000D0B10133032B01F1C201ECD140223E4891
:1052E00004A92AF0F6FDC2233A4A03FB062393F8E9
:1052F000C1306BBB4FF4D352304914A80CF0B2FF4D
:10530000034668B3354A21E053465A46402100958A
:1053100004A822F057F83F2808DDC0F5D4531E3307
:10532000A0F13F024146F8182BF005F953465A46C2
:105330004021009504A822F045F8421E3E2A03466B
:1053400003D80135B5E76FF01503254A01215BE766
:1053500014A825F027FE03460028CBD0214AF5E704
:10536000FFF756FA0346002891D101213046FFF796
:1053700093FE054610B103461B4AE7E720461B4A49
:10538000082126F007F82946194823F09DFDB9F1B8
:10539000000118BF01210C4823F096FD46E700BF2D
:1053A000202D0020DC970600C0980600D09806004B
:1053B000300B0020D4C70020F2980600742D002086
:1053C0000E990600229906002C2D00204498060014
:1053D0001594060066A101209447002091990600CB
:1053E0004E99060076990600AE990600CB99060004
:1053F000282D0020489906002DE9F04F80460F46E1
:1054000091469A460024304EDFF8DCB08BB019216B
:1054100023465A4603A821F0D5FF404603A9FCF7CE
:10542000E1FDF0B9B7F5D35F1BD13A4650462749A5
:10543000C847051E0ADA26480368590711D02346D3
:10544000244A0095012125F022FA0AE012D12048D1
:10545000036813F0060F04D0022123461E4A25F0EC
:105460000CFA0134032C06F1C206D0D100200BB097
:10547000BDE8F08FB5F5D35F07D0154803685A072C
:10548000EFD0164A23460095DCE741221449304606
:1054900006F141052AF068FD0123802128460B4AC8
:1054A00006F00AFA60B10A4803685B0703D00121DD
:1054B0000C4A25F0D9F98022002128462BF03BF830
:1054C000012386F8C130CCE766A10120D8C70020AF
:1054D000200A0020EC9906000D9A0600229A060088
:1054E000F8E10020279806004E980600F7B506461A
:1054F0001D4BD3E8AF3F33B901211C4A25F04AFFC9
:10550000002003B0F0BD022905D008211368184A15
:1055100025F040FFF4E757683846FCF775FD044670
:10552000144800F500452B68E218B2F5004F05D984
:1055300001213046104AC3F50043E9E722463946C7
:1055400018442AF0D1FF2B6823442B604FF0FF3220
:105550004FF0FF330948CDE900234FF4A022002388
:1055600021F0D4F8CCE700BF202D00204F9A060090
:10557000889A0600D4470020A09A0600300B00202D
:10558000F0B5364CA9B00546A069FBF7BDF8CDE9EA
:1055900006016069FBF7B8F8CDE904012069FBF763
:1055A000B3F8CDE90201E068FBF7AEF82C4ACDE98B
:1055B0000001802108A821F005FF802807DD0321D4
:1055C0002846284A25F0E6FE002029B0F0BD264BEB
:1055D000D3E8AF3F08212846244A25F0DBFE244AC1
:1055E00008AB0821284625F0D5FED4E900327BB36C
:1055F000B2FBF3F1CDE90021284608211D4A25F030
:10560000C9FE206830B3FBF75DF802460B46D4E9CB
:105610000801FBF7FBF941EC100B23F09BFA002289
:1056200051EC100B144BFBF7C7F806460F46E06928
:10563000FBF76AF80022104BFBF7BEF8CDE90067D4
:10564000CDE902010D4A0821284625F0A3FEBBE75B
:105650001946CFE700260027E9E700BF48130020DE
:10566000D19A0600ED9A06002C2D0020069B06001C
:1056700063030700119B060000408F403D9B06001E
:10568000012970B50446164606D808211368234A36
:1056900025F080FE002070BD032917D120499068B5
:1056A000FCF7A0FCB0FA80F56D0976681D4930461C
:1056B000FCF798FC014658B130461B49FCF792FCB8
:1056C000D0B1334601212046184AE1E70025ECE736
:1056D000174BD3E8AF3F164823F0F6FB0B462046A6
:1056E0000821144A25F056FE002DD3D0012112487E
:1056F00023F0EAFB114A09E00D4BD3E8AF3F53B961
:105700000F4B93F8E01A0029E5D10E4A08212046F4
:1057100025F040FEBEE70121DDE700BF689B0600E3
:10572000799B06003EC70600E91B0700839B060025
:105730002C2D0020ED9B0600242D0020FA9B060056
:1057400038F20020A29B060008B5044BD3E8AF3F17
:105750000821034A25F01EFE002008BD2C2D002044
:10576000139C0600F0B5BDB0A44A436804469342BA
:1057700008AF6ED1A24BD3E8AF3F002B3CD0C3683B
:105780005D0709D09F49A0487C23A04A24F051FC22
:105790007C219E4824F046FCDB08032B2CD12AF008
:1057A00063FA4FF47A72A0FB020302FB0131C00BD3
:1057B00040EA414007F16003C90BC7E91A0107F14C
:1057C000580220469249009307F1500305F090FEDD
:1057D000D7E9144522462B4620462946FBF786FA90
:1057E00030B90022204629468A4BFBF757FA28B1E8
:1057F0000021894823F068FB002027E0D7E9162321
:1058000010461946FBF772FA0028F5D1D7E918239C
:1058100010461946FBF76AFA0028EDD10022002352
:105820007E4807F150011EF0CFF870B17C4B1B6829
:1058300013F0060F04D002217A4A794825F014F8B3
:10584000794A936801339360D6E70120D437BD4687
:10585000F0BD764A934226D18389DFED756A07EE63
:10586000903AF8EE677AF1EE677A87EEA67A714B96
:10587000714A83ED007A437A704D981E414241414E
:10588000003B18BF012311706D4A1370237A032B5C
:1058900006D12B78032B03D000215F4823F014FBA3
:1058A000237A2B70A8E7674A934240F0E980836827
:1058B000DD68002D00F087802B78002B00F08380BE
:1058C00028466149FCF78EFB48B329460025402253
:1058D00007F10C002AF048FB07F10C0087F84C5048
:1058E000FCF792FB2B465F2107F10C02834236D175
:1058F000564907F10C00FCF775FB30B1544907F12C
:105900000C00FCF76FFB90BB01204FF4D3525149C0
:1059100002FB001150482AF0E7FDFFF791FB01213F
:10592000374823F0D1FA3E48036803F00703022BFF
:105930007FF662AFA3686C46DB68224688B04749B1
:10594000C4E905134FF40073A383454B42F8103F9D
:1059500000234FF4E65109F0DDFBA5464CE712F8B1
:10596000015B0133202D08BF02F8011CBEE70025B2
:105970003C4E314607F10C00FCF734FB002837D1D0
:1059800096F8C130002B33D0374B93E807002B46F5
:1059900087E807008021354A07F1500021F012FD09
:1059A0003A46334907F150000CF0BCFC034610B9ED
:1059B0003A7A002AB1D11A480268510703D001216E
:1059C0002C4A24F05AFF00210D4823F07DFA12489A
:1059D00023F07AFA284B124883F8E01A036813F090
:1059E000060F3FF409AF0221244A24F03DFF03E7EC
:1059F0000135032D06F1C206BBD1E4E7346407008C
:105A00002C2D0020509C06007A8D06001E9C06005E
:105A1000899C06000000E03F282D0020340F002064
:105A2000200A0020989C0600481300208C63070081
:105A300000007A446805002065A1012063A10120CF
:105A400064A10120E462070058FC00207C320600BB
:105A5000DC4C06005C18060038E20020FF9C0600C3
:105A60000300000166A10120E01106004498060031
:105A70005D490300AC9C060038F20020CE9C060075
:105A8000224DAB4236D18268214B9A427FF4B4AEAC
:105A9000037B002B7FF4B0AE0CF07AFD034638B1E7
:105AA0001C480268520703D001211B4A24F0E5FE7E
:105AB00000220023CDE9062300230E22CDE9013385
:105AC000CDE9032300934FF48052144B1449154839
:105AD0001DF09AFE144913481DF09CFC10200FF095
